:020000040800F2
:1000000088B1002005020008DD100008C5030008C3
:10001000D9100008590300087912000800000000F8
:10002000000000000000000000000000E1100008D7
:100030005D03000800000000DF100008CD1100087B
:100040001F0200081F0200081F0200081F0200080C
:100050001F0200081F0200081F0200081F020008FC
:100060001F0200081F0200081F0200081F020008EC
:100070001F0200081F0200081F0200081F020008DC
:100080001F0200081F0200081F0200081F020008CC
:100090001F0200081F0200081F0200081F020008BC
:1000A0001F0200081F0200081F0200081F020008AC
:1000B0001F0200084D1200081F0200081F0200085E
:1000C0001F0200081F0200081F0200081F0200088C
:1000D0001F0200081F0200081F0200081F0200087C
:1000E0006D0300081F0200081F0200081F0200081D
:1000F0001F0200081F0200081F0200081F0200085C
:100100001F0200081F0200081F0200081F0200084B
:100110001F0200081F0200081F0200081F0200083B
:100120001F0200081F0200081F0200081F0200082B
:1001300000F002F800F03CF80AA090E8000C8244BD
:100140008344AAF10107DA4501D100F031F8AFF29A
:10015000090EBAE80F0013F0010F18BFFB1A43F0A5
:10016000010318478C250000AC250000103A24BF7D
:1001700078C878C1FAD8520724BF30C830C144BF0C
:1001800004680C607047000000230024002500264E
:10019000103A28BF78C1FBD8520728BF30C148BFEA
:1001A0000B6070471FB500F062F81FBD10B510BDA1
:1001B00000F09BF81146FFF7F5FF01F055FE00F047
:1001C000B9F803B4FFF7F2FF03BC00F0BFF800007A
:1001D0000B49D1F800C04A685CF8043B1068184429
:1001E00042F8040B8C4528BFA1F1DC0C8A4228BFE1
:1001F000A1F1DC02C1F800C04A6020F00040704765
:100200001CAB00200948804709480047FEE7FEE78D
:10021000FEE7FEE7FEE7FEE7FEE7FEE7FEE7FEE7B6
:1002200004480549054A064B70470000ED110008D7
:100230003101000888AB002088B1002088AD002083
:1002400088AD00200B4910B5A1F17C020A4CC2E92F
:100250003712372106E000EB104342F82130074BFC
:1002600000FB03400B1EA1F10101F4DC10BD0120D5
:10027000E8E70000BCAA0020E119D666CD0D010018
:1002800010B5203AC0F00B80B1E81850203AA0E831
:100290001850B1E81850A0E81850BFF4F5AF5FEA65
:1002A000027C24BFB1E81850A0E8185044BF18C918
:1002B00018C0BDE810405FEA827C24BF51F8043BBF
:1002C00040F8043B08BF7047D20728BF31F8023B13
:1002D00048BF11F8012B28BF20F8023B48BF00F8A7
:1002E000012B7047704770477047754600F028F83B
:1002F000AE4605006946534620F00700854618B013
:1003000020B5FFF78DFFBDE820404FF000064FF00D
:1003100000074FF000084FF0000B21F00701AC463A
:10032000ACE8C009ACE8C009ACE8C009ACE8C00959
:100330008D4670470446AFF300802046FFF741FF2B
:100340000048704724AB0020704700000149182086
:10035000ABBEFEE72600020000BFFEE770470021AB
:1003600000E0491C8142FCD37047000000B51148F1
:100370000068002810DD0F48006809280CDA0E48D4
:100380008068C0F380200B490978491E88400B49DA
:10039000097808430949087006480068401C054967
:1003A00008600A20FFF7DBFF4FF400600449086093
:1003B00000BD00001C0000200010014020000020B3
:1003C0001404014000BFFEE71448806940F00800B3
:1003D000124988611248006820F4700010490860D2
:1003E0000846006840F4401008600C48806940F0FE
:1003F00040000A4988610B48006820F470000949F0
:1004000008600846006840F4401008602020044955
:100410001031086003491031086070470010024035
:10042000000C014000180140014601F007021202D1
:10043000044B18684FF6FF03184003481043014B64
:10044000186070470CED00E00000FA051D48806957
:1004500040F010001B4988611B48406820F47F4031
:10046000194948600846406840F40840486015480B
:10047000806940F00100134988611448006920F444
:10048000704112480161006940F400510F48016158
:100490000F48006840F400600D4908600C480C30BB
:1004A000006840F400600A490C31086035210948B1
:1004B00001700948006840F480704FF0E021C1F8F5
:1004C000040170470010024000100140000001408C
:1004D0000004014028E400E004E100E000204FF0C7
:1004E000E0210861034848610846006940F00300C4
:1004F000086170478F5F0100F0B505460E4617464C
:100500001C460A2C4CD2DFE804F0050C131A2128F3
:100510002F363D443F233A463146284600F079F9CC
:100520003EE006233A463146284600F072F937E0AD
:100530005B233A463146284600F06BF930E04F2302
:100540003A463146284600F064F929E066233A46E7
:100550003146284600F05DF922E06D233A463146E7
:10056000284600F056F91BE07D233A4631462846DE
:1005700000F04FF914E007233A463146284600F0D0
:1005800048F90DE07F233A463146284600F041F90C
:1005900006E06F233A463146284600F03AF900BF9C
:1005A00000BFF0BD10B503460C462A2000F0A2FAA9
:1005B000181200F099FAD8B200F096FA012000F073
:1005C00093FA3F2000F090FA2B2000F093FA2012CB
:1005D00000F08AFAE0B200F087FA012000F084FA15
:1005E000DF2000F081FA2C2000F084FA104600F0A1
:1005F0007BFA10BDF0B507460C46059D00262A2063
:1006000000F078FA201200F06FFAE0B200F06CFA15
:100610001119491EC1F30F2000F066FA1119491E85
:10062000C8B200F061FA2B2000F064FA181200F052
:100630005BFAD8B200F058FAE918491EC1F30F204E
:1006400000F052FAE918491EC8B200F04DFA2C2009
:1006500000F050FA00BF03E0384600F045FA761C7F
:1006600002FB05F0B042F7D8F0BD000000B55548D8
:10067000406940F48070534948610846806940F001
:10068000080088610846806940F0200088610846BB
:10069000806940F0400088610846806940F48070BD
:1006A00088614948006820F00F0047490860084603
:1006B000006840F00300086044480068444908406E
:1006C0004249086008460068424908433F490860BB
:1006D000081F006800F0FF20091F08600846006836
:1006E00040F0BB1008603C48006800203A490860B0
:1006F0000846006840F0BB300860081F006820F022
:100700007040091F08600846006840F030400860EB
:100710003248406820F470203049486008464068FC
:1007200040F4302048600846006820F00F00086060
:100730000846006840F00B00086000204FF02041A0
:100740008861C861264908604FF02040806940F404
:1007500080504FF0204188610846806940F4804015
:1007600088610846806940F0100088610846C069C9
:10077000C8610846C06940F00100C8610846C06908
:1007800040F47060C86116480068C1F81C01144844
:100790000068C1F81C010846D0F81C0140F4407004
:1007A000C1F81C010846806940F00100886100F032
:1007B00019F805481030006840F001000249103176
:1007C000086000BD00100240000C0140041401400C
:1007D00000F0FF00BB0B00BB0418014000200140EB
:1007E0001C0100A000B5012000F084F9112000F0E8
:1007F00081F93A2000F07EF9552000F075F92920A2
:1008000000F078F9362000F075F9CA2000F06CF994
:1008100000BDF8B507460E4614461D4605F001001A
:1008200058B10A20009004F1960083B206F10A0044
:1008300081B23C223846FFF7DDFEC5F3400058B1D7
:100840004120009004F1550083B206F1460081B2C8
:100850000A223846FFF7CEFEC5F3800058B141208A
:10086000009004F10A0083B206F1460081B20A2228
:100870003846FFF7BFFEC5F3C00048B10A2000901C
:1008800006F10A0081B223463C223846FFF7B2FE49
:10089000C5F3001048B14120009004F10A0083B272
:1008A0000A2231463846FFF7A5FEC5F3401048B18D
:1008B0004120009004F1550083B20A2231463846A7
:1008C000FFF798FEC5F3801058B10A20009004F19C
:1008D0004B0083B206F10A0081B23C223846FFF792
:1008E00089FEF8BD2DE9F04F04460D4616469A469E
:1008F000DDF8249010224FF0080B202E01DB7F2E14
:1009000001DDBDE8F08FA6F12000C6B22A2000F07C
:10091000F1F8201200F0E8F8E0B200F0E5F80BEB97
:100920000401491EC1F30F2000F0DEF80BEB0401B7
:10093000491EC8B200F0D8F82B2000F0DBF82812CE
:1009400000F0D2F8E8B200F0CFF85119491EC1F317
:100950000F2000F0C9F85119491EC8B200F0C4F8C0
:100960002C2000F0C7F8002327E04FF000081DE01E
:10097000002715E0154800EB0610012101EB4701A7
:10098000C91A405C40FA08F000F0010018B1504666
:1009900000F0AAF802E0484600F0A6F8781CC7B2BA
:1009A0005F45E7DB08F1010000F0FF0802EBD271C0
:1009B000B8EB610FDCDB581CC3B2D11702EB5171ED
:1009C000B3EBE10FD1DB00BF9BE70000F41F000891
:1009D0002DE9F84F0546884616461F46DDE90A9A76
:1009E00000240DE016F804B005EBC40188B24B46B4
:1009F0005A464146CDF800A0FFF774FF601C84B250
:100A0000BC42EFDBBDE8F88F2DE9F04F04460D4600
:100A100017469A46DDF82490102293460A2F01DBF0
:100A2000BDE8F08F2A2000F065F8201200F05CF895
:100A3000E0B200F059F80BEB0401491EC1F30F209E
:100A400000F052F80BEB0401491EC8B200F04CF85C
:100A50002B2000F04FF8281200F046F8E8B200F022
:100A600043F85119491EC1F30F2000F03DF8511908
:100A7000491EC8B200F038F82C2000F03BF80023E3
:100A800027E04FF000081DE0002615E0154800EBB8
:100A90004710012101EB4601C91A405C40FA08F0F9
:100AA00000F0010018B1504600F01EF802E0484680
:100AB00000F01AF8701CC6B25E45E7DB08F10100D1
:100AC00000F0FF0802EBD271B8EB610FDCDB581CC1
:100AD000C3B2D11702EB5171B3EBE10FD1DB00BF11
:100AE0009EE70000E42500080149088070470000E7
:100AF0000008006C0149088070470000FE07006C88
:100B0000124AD26942F00202104BDA61104A108098
:100B1000121F11800E4A203A128842F001020C4B3B
:100B2000203B1A800A4A2C3A128842F00102084BF4
:100B30002C3B1A804523074A1370074A126842F07B
:100B400000524FF0E023C3F800217047001002402C
:100B50002C0400401DE400E000E100E0072100203B
:100B6000234A5268234B1A40214B5A601A46126896
:100B7000214B1A401E4B1A601A46126842F480320A
:100B80001A6000BF1A4A1268520C002AFAD04FF4B9
:100B90008062174B5A601A46526842EA81425A6094
:100BA0001A46526842F480325A60144A126842F07F
:100BB0003202124B1A600E4A126842F080720C4BDD
:100BC0001A6000BF0A4A1268520E002AFAD0084A78
:100BD000526842F00202064B5A6005E0044A52682D
:100BE000C2F3870000F003000228F7D1704700002D
:100BF000001002400000FFF8FFFFF6FE0020024058
:100C00002DE9F041A4B004460E46F4A207CA21AB78
:100C100007C3F5A207CA1EAB07C3F6A2D2E90010AC
:100C20009268CDE91C021B911422F5A116A8FFF7CA
:100C300027FB1C22F7A10FA8FFF722FB1422FCA11F
:100C40000AA8FFF71DFB1C22FEA103A8FFF718FB53
:100C50004FF4A0700023F022194600902046FFF7C1
:100C6000C9FC4FF47C400B231BAA4FF48C71CDE9D7
:100C700000044620FFF7ACFE0020112316AAF02145
:100C8000CDE900040A20FFF7A3FE00201A230FAAD3
:100C9000DC21CDE900040A20FFF79AFE3C208C23DA
:100CA0000246142100904FF6FF70FFF7A3FC3C2092
:100CB0008C2302465A2100904FF6FF70FFF79AFCF2
:100CC0003C208C230246A02100904FF6FF70FFF7D6
:100CD00091FC4FF6FF7000233122A42100902C20BC
:100CE000FFF700FE4FF6FF7000233222A421009090
:100CF0007220FFF7F7FD4FF6FF7000233322A42187
:100D00000090B820FFF7EEFD002014230AAA64210A
:100D1000CDE900040A20FFF75BFE00201B2303AA95
:100D20005021CDE900040A20FFF752FE00200A23DB
:100D300021AA1021CDE900045020FFF749FE002030
:100D40000A231EAA2021CDE900045020FFF740FE0F
:100D500000231A46102140200094FFF755FE00237F
:100D60000122202140200094FFF74EFE4FF00008A2
:100D70000BE0FFF72DFA092190FBF1F201FB1200C5
:100D8000B74941F8280008F10108B8F1060FF0DB77
:100D900000250EE0002708E0002007EB0711B14A0C
:100DA00002EBC10141F825007F1CB7F5A07FF3DB02
:100DB0006D1C222DEEDBF020AB4908600846006870
:100DC0006430AA490860A8480068C830A84908608B
:100DD0002820A84908608A20A74908600020A74960
:100DE0000860A748006840F02000A549086067E156
:100DF000A44800680B287DDBA3480078F02845D183
:100E0000A2480078692841D10120A14908603E200C
:100E10008B23F022002100902046FFF7EBFB3C20C3
:100E20008C230246142100904FF48260FFF7E2FB0E
:100E30003C208C2302465A2100904FF6FF70FFF7AA
:100E4000D9FB3C208C230246A02100904FF6FF7076
:100E5000FFF7D0FB4FF482604FF6FF733122A421DD
:100E600000902C20FFF73EFD4FF6FF70002332224A
:100E7000A42100907220FFF735FD4FF6FF7000238C
:100E80003322A4210090B820FFF72CFD7E48007883
:100E9000F02847D17D480078722843D102207C4950
:100EA00008603E208B23F022002100902046FFF7AF
:100EB000A1FB3C208C230246142100904FF6FF70CA
:100EC000FFF798FB3C208C2302465A2100904FF4F8
:100ED0008260FFF78FFB3C208C230246A02100900C
:100EE0004FF6FF70FFF786FB4FF6FF7000233122AD
:100EF000A42100E0D8E000902C20FFF7F3FC4FF491
:100F000082604FF6FF733222A42100907220FFF717
:100F1000E9FC4FF6FF7000233322A4210090B82093
:100F2000FFF7E0FC58480078F02845D15748007892
:100F30007A2841D10320564908603E208B23F022B5
:100F4000002100902046FFF755FB3C208C230246F1
:100F5000142100904FF6FF70FFF74CFB3C208C23D0
:100F600002465A2100904FF6FF70FFF743FB3C20EA
:100F70008C230246A02100904FF48260FFF73AFBD9
:100F80004FF6FF7000233122A42100902C20FFF7A0
:100F9000A9FC4FF6FF7000233222A421009072209A
:100FA000FFF7A0FC4FF482604FF6FF733322A421B9
:100FB0000090B820FFF796FC33480078F0286AD0FC
:100FC000324800785A2866D14FF4A0700023F022EE
:100FD000194600901846FFF70DFB72E031313535A8
:100FE0003037363732370000313135353037363724
:100FF00033300000466C6170707920426972640081
:10100000507265737320312032206F722033207448
:101010006F00000063686F6F73652061206469660C
:10102000666963756C7479206C6576656C2E00005A
:10103000507265737320456E74657220746F20530F
:10104000746172745072657373202B20746F204C1E
:10105000657420746865204269726420466C79006A
:1010600028000020400000200C000020100000207C
:1010700014000020040000200800002018000020B8
:10108000100C01401C000020210000202000002046
:1010900024000020FFE70D4800780D49087000206B
:1010A0000C49086009490870761E36B944F6206676
:1010B000002006490870074908606420FFF74FF9CF
:1010C00096E600BF24B0BDE8F081000020000020BB
:1010D000210000201C00002000BFFEE77047704781
:1010E000704710B500F002F810BD00000CB50020EC
:1010F000019000903348006840F480303149086026
:1011000000BF3048006800F4003000900198401C97
:101110000190009818B90198B0F5A06FF1D1294855
:10112000006800F4003010B10120009001E00020C0
:1011300000900098012843D12348006840F0100037
:10114000214908600846006820F00300086008464E
:10115000006840F0020008601A4840681949486079
:101160000846406848600846406840F4806048602F
:101170000846406820F47C1048600846406840F407
:10118000E81048600846006840F08070086000BFC2
:101190000C48006800F000700028F9D00948406849
:1011A00020F00300074948600846406840F002000C
:1011B000486000BF0348406800F00C000828F9D1DF
:1011C0000CBD0000001002400020024005480078DD
:1011D000401C0449087004480078401C024908700B
:1011E00070470000000000200100002010B51348E7
:1011F000006840F001001149086008464068104945
:1012000008400E494860084600680E4908400B49EE
:1012100008600846006820F480200860084640689E
:1012200020F4FE0048604FF41F008860FFF759FF6C
:101230004FF000600449086010BD0000001002403B
:101240000000FFF8FFFFF6FE08ED00E00848008808
:1012500000F0010028B10748006880F0200005492F
:1012600008600348008820F00100014908807047A9
:10127000100400400C18014000BFFEE738B50446DA
:101280001048007801281BDD1C2000900E480088C3
:1012900083B20E48008881B222220020FFF7AAF90B
:1012A00009480068001B084908600023022208461C
:1012B00001680648006800F0ADF900200149087097
:1012C00038BD0000000000200800002004000020BD
:1012D000354800681430B0F5A07F5DDA3248006808
:1012E000002859DD3048006800EB00102F4901EB61
:1012F000C000D0F8840001284CD02B48006800EBD7
:10130000001051F83000012844D02748006800EB55
:10131000001001EBC000C06B01283BD022480068E0
:101320000A3000EB001001EBC000D0F88400012867
:1013300030D01D4800680A3000EB001051F8300032
:10134000012827D0184800680A3000EB001001EB94
:10135000C000C06B01281DD013480068173000EB97
:10136000001001EBC000D0F88400012812D00E4814
:101370000068173000EB001051F83000012809D048
:1013800009480068173000EB001001EBC000C06B8B
:10139000012801D10120704703480068002801DAC4
:1013A0000120F8E70020F6E70800002040000020B8
:1013B0002DE9F04F85B004460E4617469846A146E3
:1013C000A9EB060A0121404600F040FDA0F10A0BFE
:1013D0000021384600F03AFD0A30049009F123005C
:1013E0000AF11E01451ACBF5A070039004980290F3
:1013F00008460190002D19DD0398401C80B2009032
:10140000ABF1010083B2681C82B2019881B2002066
:10141000FFF7F0F80298801C80B20090681C82B23E
:10142000019881B200231846FFF7E4F805B0BDE843
:10143000F08F000010B504465C48436821460268FE
:101440005B480068FFF7B4FF5848C36821468268CC
:1014500058480068FFF7ACFF5448436921460269C9
:1014600055480068FFF7A4FF51480068001B504929
:10147000086050480068001B4E4908604E480068EC
:10148000001B4D4908604A4800682C304B490968E8
:10149000884204D14A480068401C494908604548D0
:1014A00000682C3045490968884204D144480068E6
:1014B000401C43490860404800682C303F49096897
:1014C000884204D13E480068401C3D4908603848C5
:1014D00000682C30002814DAF02035490860FEF747
:1014E00077FE092190FBF1F201FB12002F49086001
:1014F000FEF76EFE092190FBF1F201FB12002B4971
:1015000048602C4800682C30002816DA284800680B
:10151000643028490860FEF75BFE092190FBF1F278
:1015200001FB120021498860FEF752FE092190FB61
:10153000F1F201FB12001D49C8601F4800682C3001
:10154000002816DA1A480068C8301B490860FEF700
:101550003FFE092190FBF1F201FB120013490861E3
:10156000FEF736FE092190FBF1F201FB12000F4954
:1015700048610E4843684FF4FC6102680C480068FB
:1015800000F030F90948C3684FF4FC6182680948EB
:10159000006800F027F9054843694FF4FC610269CF
:1015A0000548006800F01EF910BD0000280000206A
:1015B0000C00002010000020140000200400002077
:1015C0001800002038B50546681CC4B214E0234654
:1015D000502211460020FEF78FFF0D48FEF7BFFE98
:1015E0004FF4A0700023F022194600904FF6FF70D0
:1015F000FFF700F8601EC4B2002CE8DC4FF4A070C6
:101600000023F022194600901846FEF7F3FF38BD7C
:10161000404B4C002DE9F84F81468A4614469B46C4
:10162000FFF724F8002554E000264FE0BBF1000F3F
:1016300003D106FB049705FB04A8BBF1010F05D1FC
:1016400005FB0497C6F1100000FB04A805EB05108C
:1016500022490844805D062836D2DFE800F0030402
:101660000D17212B30E01FFA88F3B9B22246002073
:101670000094FEF7BFFF27E01FFA88F3B9B22246B5
:101680004FF6FF700094FEF7B5FF1DE01FFA88F3D8
:10169000B9B222464FF620700094FEF7ABFF13E07C
:1016A0001FFA88F3B9B222464EF661500094FEF755
:1016B000A1FF09E01FFA88F3B9B222464FF6403085
:1016C0000094FEF797FF00BF00BF761C112EADDB24
:1016D0006D1C0C2DA8DBBDE8F88F00002426000847
:1016E0002DE9F84F04468A4693464FF01E080BEB4F
:1016F0008B00282101EB400085B2A1B200234246B5
:1017000050460095FEF776FF0A200090A81C83B291
:1017100008F10A02601F81B25046FEF76BFF0027F6
:101720001BE0B9B2A21E90B20022FEF73BFFB9B295
:10173000621E90B20022FEF735FFB9B204EB080238
:1017400090B20022FEF72EFFB9B204EB0802521C41
:1017500090B20022FEF726FF7F1CAF42E1DB00269D
:1017600024E0AA19521C91B2E21F90B20022FEF7A7
:1017700019FFAA19521C91B2A21F90B20022FEF7C3
:1017800011FFAA19521C91B204EB0802521D90B22B
:101790000022FEF707FFAA19521C91B204EB0802BF
:1017A000921D90B20022FEF7FDFE761C0B2ED8DBB8
:1017B0004FF0000911E0E11F494488B20022294698
:1017C000FEF7F0FE05F10C0291B2E21F4A4490B21E
:1017D0000022FEF7E7FE09F10109B9F12C0FEADB5F
:1017E000BDE8F88F2DE9F04105460E4617461C4628
:1017F0003A4631462846FFF773FF224631462846CF
:1018000000F002F8BDE8F0812DE9F84F04468A4661
:1018100093464FF01E080BEB8B00282101EB400094
:1018200085B2C5F5A07083B2A1B24246504600957C
:10183000FEF7E0FE0A20009040F23510401B83B214
:1018400008F10A02601F81B25046FEF7D3FE00275E
:1018500027E040F23F12D21B91B2A21E90B20022AA
:10186000FEF7A0FE40F23F12D21B91B2621E90B270
:101870000022FEF797FE40F23F12D21B91B204EB1A
:10188000080290B20022FEF78DFE40F23F12D21BFA
:1018900091B204EB0802521C90B20022FEF782FEC5
:1018A0007F1CAF42D5DB002630E0AA19521C40F263
:1018B0003F139A1A91B2E21F90B20022FEF772FE15
:1018C000AA19521C40F23F139A1A91B2A21F90B269
:1018D0000022FEF767FEAA19521C40F23F139A1A23
:1018E00091B204EB0802521D90B20022FEF75AFE9C
:1018F000AA19521C40F23F139A1A91B204EB080243
:10190000921D90B20022FEF74DFE761C0B2ECCDB12
:101910004FF0000917E040F23F12521B91B2E21F54
:101920004A4490B20022FEF73DFE05F10C0240F25F
:101930003F139A1A91B2E21F4A4490B20022FEF776
:1019400031FE09F10109B9F12C0FE4DBBDE8F88F94
:10195000F0B591B004463DA2D2E900109268CDE9FD
:101960000F020E913CA30FCB0AAD0FC53EA292E829
:101970000B00D26806AD0BC509923FA207CA03ABA4
:1019800007C34048006800F027FB07463D4806684B
:1019900000250EE00A2196FBF1F201FB12613031C5
:1019A000C8B2C5F10F010AAA50540A2196FBF1F6FC
:1019B0006D1CBD42EEDBB420462302461E21009082
:1019C0002046FEF717FE4FF478400A230EAAB421F2
:1019D000CDE900042820FEF7FBFF002010230AAA0F
:1019E0009621CDE900042320FEF7F2FF002010230A
:1019F00006AA6421CDE900042320FEF7E9FF0020B8
:101A00000C2303AA5021CDE900042320FEF7E0FFB8
:101A100018E01D4800680B2811DB1C480078F028EE
:101A200004D01B480078772800D10CE018480078D3
:101A30001649087000201449086015490870642090
:101A4000FEF78DFCE5E700BF11B0F0BD47414D4505
:101A5000204F564552210000596F75722053636F15
:101A600072653A20202020205072657373204E75D5
:101A70006D4C6F636B20746F537461727420416797
:101A800069616E2E180000201C000020210000203B
:101A90002000002010B5C9480168C94800682230FC
:101AA00081423BDCC5480068C5490968884235DB8E
:101AB00000202FE0212124E0C24A126802EB8202BA
:101AC000322303EB4202824207DD012200EB0013C6
:101AD000BD4C04EBC30343F82120BA4A526802EB21
:101AE0008202282303EB4202C2F59B72824207DC8A
:101AF000012200EB0013B44C04EBC30343F8212094
:101B0000491EAF4A12682232AC4B1B68D21A8A4275
:101B1000D2DB401CB0F5A07FCCDB4EE1A7480068CB
:101B2000A749096888423CDAA5480168A3480068CB
:101B30001E30814235DC00202FE0002124E0A14A44
:101B4000126802EB8202322303EB4202824207DD7B
:101B5000012200EB00139C4C04EBC30343F821204B
:101B6000984A526802EB8202282303EB4202C2F534
:101B70009B72824207DC012200EB0013924C04EBC3
:101B8000C30343F82120491C8C4A12681E328C4B37
:101B90001B68D21A8A42D2DC401CB0F5A07FCCDB95
:101BA0000BE18A48016886480068223081423BDCAC
:101BB0008648006882490968884235DB00202FE0AA
:101BC000212124E07F4A926802EB8202322303EB58
:101BD0004202824207DD012200EB00137A4C04EB43
:101BE000C30343F82120774AD26802EB82022823FC
:101BF00003EB4202C2F59B72824207DC012200EB3A
:101C00000013714C04EBC30343F82120491E6C4AB6
:101C1000126822326D4B1B68D21A8A42D2DB401CFA
:101C2000B0F5A07FCCDBC8E068480068644909686B
:101C300088423CDA62480168644800681E3081428C
:101C400035DC00202FE0002124E05E4A926802EBA0
:101C50008202322303EB4202824207DD012200EBC3
:101C60000013594C04EBC30343F82120554AD268B2
:101C700002EB8202282303EB4202C2F59B728242EE
:101C800007DC012200EB00134F4C04EBC30343F8C5
:101C90002120491C4D4A12681E32494B1B68D21A3A
:101CA0008A42D2DC401CB0F5A07FCCDB85E04848FE
:101CB000016843480068223081423BDC44480068A8
:101CC0003F490968884235DB00202FE0212124E0CC
:101CD0003C4AD26802EB8202322303EB4202824288
:101CE00007DD012200EB0013374C04EBC30343F87C
:101CF0002120344A126902EB8202282303EB4202BC
:101D0000C2F59B72824207DC012200EB00132E4CCD
:101D100004EBC30343F82120491E294A12682232EA
:101D20002B4B1B68D21A8A42D2DB401CB0F5A07F35
:101D3000CCDB42E0264800682149096888423CDA49
:101D40001F480168224800681E30814235DC0020AF
:101D50002FE0002124E01B4AD26802EB82022823F4
:101D600003EB4202824207DD012200EB0013164C16
:101D700004EBC30343F82120124A126902EB8202EA
:101D8000282303EB4202C2F59B72824207DC012248
:101D900000EB00130C4C04EBC30343F82120491C57
:101DA0000B4A12681E32064B1B68D21A8A42D2DCDA
:101DB000401CB0F5A07FCCDB00BF10BD0C000020A4
:101DC0000400002028000020400000201000002017
:101DD0001400002038B505460C46174800680B284B
:101DE00029DB16480078F0281CD01548007879289F
:101DF00018D11C2000901348008883B21248008834
:101E000081B222220020FEF7F5FB0E480068204434
:101E10000C49086000230222084601680A4800684D
:101E2000FFF7F8FB064800780449087000200249D3
:101E300008600349087038BD1C0000202100002004
:101E400020000020080000200400002010B50246F9
:101E500002EB8200282404EB4003012902D1C3F5E0
:101E6000A07010BD1846FCE744F6206700240AE085
:101E7000FEF7AEF9092190FBF1F201FB12004B498C
:101E800041F82400641C062CF2DBF020484908606D
:101E90000846006864304749086045480068C83013
:101EA000454908602820454908608A20444908605F
:101EB000FEF7DCFBFEF796FCFEF750FEFEF784FA19
:101EC000FEF70CFBFEF7C2FA0520FEF7ADFA3D481F
:101ED000FEF745FA69E0394648F2FF70FEF790FEDA
:101EE00039480068012804D0022808D0032812D1FC
:101EF0000BE04FF00108C1464FF0100A0BE04FF025
:101F00000208C1464FF0120A05E04FF00308C1462F
:101F10004FF0140A00BF00BF0320FFF753FB41F648
:101F20001F4141F28730FEF7EBFD38E0274800689B
:101F300040F020002549086051463846FFF74AFF27
:101F40004046FFF79BF922480078012827DD00254D
:101F50000EE0002608E0002006EB06111D4A02EB09
:101F6000C10141F82500761CB6F5A07FF3DB6D1C9E
:101F7000222DEEDBFFF78EFDFFF7AAF9012808D12D
:101F80001248001D006840F020001049091D08603B
:101F900006E04846FFF74EFA00200D490870C5E7F5
:101FA00000BF4FF6FA70FFF7D3FC94E7280000203B
:101FB0000C0000201000002014000020040000206D
:101FC0000800002040420F0024000020100C0140B7
:101FD00001000020400000200146002209B9012034
:101FE000704703E00A2091FBF0F1521C0029F9D15F
:101FF0001046F5E7000000000000000000000000AF
:10200000000000000000000000001FCC000C0000D9
:1020100000000000000008003000600008003000F0
:1020200060000000022003FC1E20022003FC1E2092
:102030000220000000000E1811043FFF10840C78ED
:10204000000000000F0010840F3800C007781884CB
:102050000078000000780F8410C411240E9800E46A
:102060000084000808006800700000000000000004
:102070000000000000000000000007E01818200425
:1020800040020000000040022004181807E0000091
:10209000000000000240024001800FF00180024079
:1020A000024000000080008000800FF80080008067
:1020B000008000000001000D000E00000000000084
:1020C0000000000000000080008000800080008090
:1020D000008000800000000C000C000000000000E8
:1020E00000000000000000060018006001800600EB
:1020F00018002000000007F0080810041004080869
:1021000007F000000000080408041FFC000400049D
:102110000000000000000E0C101410241044118464
:102120000E0C000000000C18100411041104128899
:102130000C700000000000E00320042408241FFCB1
:102140000024000000001F9810841104110410885E
:1021500010700000000007F00888110411041888AE
:102160000070000000001C00100010FC13001C0098
:102170001000000000000E38114410841084114437
:102180000E38000000000700088C10441044088836
:1021900007F00000000000000000030C030C00002A
:1021A0000000000000000000000101060000000027
:1021B0000000000000000080014002200410080818
:1021C000100400000220022002200220022002202F
:1021D0000220000000001004080804100220014042
:1021E0000080000000000E001200100C106C108027
:1021F0000F00000003E00C1813E4142417C408288F
:1022000007D000000004003C03C41C40074000E469
:10221000001C000410041FFC1104110411040E889A
:102220000070000003E00C181004100410041008E3
:102230001C10000010041FFC1004100410040808F7
:1022400007F0000010041FFC1104110417C410044F
:102250000818000010041FFC1104110017C0100022
:102260000800000003E00C181004100410441C784F
:102270000040000010041FFC1084008000801084C7
:102280001FFC10040000100410041FFC10041004B4
:102290000000000000030001100110011FFE1000EB
:1022A0001000000010041FFC110403801464181CAB
:1022B0001004000010041FFC1004000400040004BB
:1022C000000C000010041FFC1F0000FC1F001FFC7E
:1022D0001004000010041FFC0C04030000E01018A0
:1022E0001FFC100007F00808100410041004080870
:1022F00007F0000010041FFC108410801080108074
:102300000F00000007F0081810241024101C080A01
:1023100007F2000010041FFC1104110011C011305D
:102320000E0C000400000E1C1104108410841044D4
:102330001C3800001800100010041FFC10041000CE
:102340001800000010001FF810040004000410041E
:102350001FF8100010001E0011E0001C0070138018
:102360001C0010001FC0103C00E01F0000E0103CEB
:102370001FC000001004180C163401C001C0163430
:10238000180C100410001C00130400FC13041C00A3
:10239000100000000804101C1064108413041C04B6
:1023A000101800000000000000007FFE4002400204
:1023B00040020000000030000C0003800060001CA0
:1023C0000003000000004002400240027FFE0000C7
:1023D000000000000000000020004000400040001D
:1023E00020000000000100010001000100010001C7
:1023F000000100010000400040002000000000003B
:102400000000000000000098012401440144014440
:1024100000FC000410001FFC008801040104008877
:102420000070000000000070008801040104010435
:1024300000880000000000700088010401041108F9
:102440001FFC0004000000F8014401440144014461
:1024500000C800000000010401040FFC1104110475
:1024600011001800000000D601290129012901C925
:102470000106000010041FFC00840100010001049B
:1024800000FC000400000104190419FC000400040D
:10249000000000000000000300010101190119FE05
:1024A0000000000010041FFC0024004001B4010CD7
:1024B000010400000000100410041FFC00040004CC
:1024C00000000000010401FC0104010001FC010402
:1024D000010000FC010401FC008401000100010472
:1024E00000FC0004000000F80104010401040104E0
:1024F00000F80000010101FF0085010401040088CB
:102500000070000000000070008801040104010553
:1025100001FF00010104010401FC00840104010029
:1025200001800000000000CC0124012401240124CA
:102530000198000000000100010007F801040104F7
:1025400000000000010001F800040004000401087C
:1025500001FC0004010001800170000C001001600A
:102560000180010001F0010C003001C00030010CBD
:1025700001F0010000000104018C00740170018C65
:1025800001040000010101810171000E00180160C9
:102590000180010000000184010C01340144018428
:1025A000010C0000000000000000000001003EFCE3
:1025B000400240020000000000000000FFFF000099
:1025C000000000000000400240023EFC010000004C
:1025D000000000000000600080008000400040001B
:1025E00020002000000000030003C003C003C183DB
:1025F000C183FFFFFFFFC183C183C003C00300038A
:10260000000300000200420033FC000800327FE4B7
:10261000C92A49317FFE048004620401FFFE0400E0
:1026200004000000000000000000000101010100A2
:102630000000000000000000000001010404040488
:102640000101010101000000000001040404040470
:102650000105050505010000000101010404040451
:10266000010501010101010000010303030103034E
:10267000030301050505050501010302020203012B
:10268000030303030101010101000102020202022E
:10269000010303030102020201000001020202021F
:1026A0000103030301020201020100000001010114
:1026B0000103030303010202010201000000000004
:1026C00001030303030301020202010000000000F2
:1026D00000000101030303030102010000000000E8
:1026E00000000000000101010101010000000000E4
:1026F0001027000800000020280000006C010008DE
:10270000382700082800002060B100008801000878
:1027100000000000000000000000000000000000B9
:1027200000000000000000000000000000000000A9
:082730000000000001000000A0
:0400000508000205E8
:00000001FF
