:020000040800F2
:1000000060070020050200082D10000815040008F4
:1000100029100008A90300089D1100080000000035
:100020000000000000000000000000003110000887
:10003000AD030008000000002F1000081D1100088B
:100040001F0200081F0200081F0200081F0200080C
:100050001F0200081F0200081F0200081F020008FC
:100060001F0200081F0200081F0200081F020008EC
:100070001F0200081F0200081F0200081F020008DC
:100080001F0200081F0200081F0200081F020008CC
:100090001F0200081F0200081F0200081F020008BC
:1000A0001F0200081F0200081F0200081F020008AC
:1000B0001F0200081F0200081F0200081F0200089C
:1000C0001F0200081F0200081F0200081F0200088C
:1000D0001F0200081F0200081F0200081F0200087C
:1000E000BD0300081F0200081F0200081F020008CD
:1000F0001F0200081F0200081F0200081F0200085C
:100100001F0200081F0200081F0200081F0200084B
:100110001F0200081F0200081F0200081F0200083B
:100120001F0200081F0200081F0200081F0200082B
:1001300000F002F800F03CF80AA090E8000C8244BD
:100140008344AAF10107DA4501D100F031F8AFF29A
:10015000090EBAE80F0013F0010F18BFFB1A43F0A5
:1001600001031847341D0000541D0000103A24BF3D
:1001700078C878C1FAD8520724BF30C830C144BF0C
:1001800004680C607047000000230024002500264E
:10019000103A28BF78C1FBD8520728BF30C148BFEA
:1001A0000B6070471FB500F062F81FBD10B510BDA1
:1001B00000F0C2F81146FFF7F5FF01F03FFA00F03A
:1001C000E0F803B4FFF7F2FF03BC00F0E7F800002B
:1001D0000B49D1F800C04A685CF8043B1068184429
:1001E00042F8040B8C4528BFA1F1DC0C8A4228BFE1
:1001F000A1F1DC02C1F800C04A6020F00040704765
:10020000F40000200948804709480047FEE7FEE760
:10021000FEE7FEE7FEE7FEE7FEE7FEE7FEE7FEE7B6
:1002200004480549054A064B704700003D11000887
:1002300031010008600100206007002060030020F9
:10024000600300200B4910B5A1F17C020A4CC2E901
:100250003712372106E000EB104342F82130074BFC
:1002600000FB03400B1EA1F10101F4DC10BD0120D5
:10027000E8E7000094000020E119D666CD0D0100EA
:1002800010B5203AC0F00B80B1E81850203AA0E831
:100290001850B1E81850A0E81850BFF4F5AF5FEA65
:1002A000027C24BFB1E81850A0E8185044BF18C918
:1002B00018C0BDE810405FEA827C24BF51F8043BBF
:1002C00040F8043B08BF7047D20728BF31F8023B13
:1002D00048BF11F8012B28BF20F8023B48BF00F8A7
:1002E000012B70474FF0000200B513469446964626
:1002F000203922BFA0E80C50A0E80C50B1F1200139
:10030000BFF4F7AF090728BFA0E80C5048BF0CC0E6
:100310005DF804EB890028BF40F8042B08BF704744
:1003200048BF20F8022B11F0804F18BF00F8012BB6
:100330007047704770477047754600F029F8AE4621
:1003400005006946534620F00700854618B020B5E1
:10035000FFF766FFBDE820404FF000064FF00007B2
:100360004FF000084FF0000B21F00701AC46ACE85D
:10037000C009ACE8C009ACE8C009ACE8C0098D46CA
:1003800070470446AFF300802046FFF71AFF0000D5
:1003900000487047FC000020704700000149182009
:1003A000ABBEFEE72600020000BFFEE7704700215B
:1003B00000E0491C8142FCD37047000000B51148A1
:1003C0000068002810DD0F48006809280CDA0E4884
:1003D0008068C0F380200B490978491E88400B498A
:1003E000097808430949087006480068401C054917
:1003F00008600A20FFF7DBFF4FF400600449086043
:1004000000BD00000C000020001001401000002082
:100410001404014000BFFEE71448806940F0080062
:10042000124988611248006820F470001049086081
:100430000846006840F4401008600C48806940F0AD
:1004400040000A4988610B48006820F4700009499F
:1004500008600846006840F4401008602020044905
:1004600010310860034910310860704700100240E5
:10047000000C014000180140014601F00702120281
:10048000044B18684FF6FF03184003481043014B14
:10049000186070470CED00E00000FA051D48806907
:1004A00040F010001B4988611B48406820F47F40E1
:1004B000194948600846406840F4084048601548BB
:1004C000806940F00100134988611448006920F4F4
:1004D000704112480161006940F400510F48016108
:1004E0000F48006840F400600D4908600C480C306B
:1004F000006840F400600A490C3108603521094861
:1005000001700948006840F480704FF0E021C1F8A4
:10051000040170470010024000100140000001403B
:100520000004014028E400E004E100E000204FF076
:10053000E0210861034848610846006940F0030073
:10054000086170478F5F0100F0B505460E461746FB
:100550001C460A2C4CD2DFE804F0050C131A2128A3
:100560002F363D443F233A463146284600F079F97C
:100570003EE006233A463146284600F072F937E05D
:100580005B233A463146284600F06BF930E04F23B2
:100590003A463146284600F064F929E066233A4697
:1005A0003146284600F05DF922E06D233A46314697
:1005B000284600F056F91BE07D233A46314628468E
:1005C00000F04FF914E007233A463146284600F080
:1005D00048F90DE07F233A463146284600F041F9BC
:1005E00006E06F233A463146284600F03AF900BF4C
:1005F00000BFF0BD10B503460C462A2000F0A2FA59
:10060000181200F099FAD8B200F096FA012000F022
:1006100093FA3F2000F090FA2B2000F093FA20127A
:1006200000F08AFAE0B200F087FA012000F084FAC4
:10063000DF2000F081FA2C2000F084FA104600F050
:100640007BFA10BDF0B507460C46059D00262A2012
:1006500000F078FA201200F06FFAE0B200F06CFAC5
:100660001119491EC1F30F2000F066FA1119491E35
:10067000C8B200F061FA2B2000F064FA181200F002
:100680005BFAD8B200F058FAE918491EC1F30F20FE
:1006900000F052FAE918491EC8B200F04DFA2C20B9
:1006A00000F050FA00BF03E0384600F045FA761C2F
:1006B00002FB05F0B042F7D8F0BD000000B5554888
:1006C000406940F48070534948610846806940F0B1
:1006D000080088610846806940F02000886108466B
:1006E000806940F0400088610846806940F480706D
:1006F00088614948006820F00F00474908600846B3
:10070000006840F00300086044480068444908401D
:100710004249086008460068424908433F4908606A
:10072000081F006800F0FF20091F086008460068E5
:1007300040F0BB1008603C48006800203A4908605F
:100740000846006840F0BB300860081F006820F0D1
:100750007040091F08600846006840F0304008609B
:100760003248406820F470203049486008464068AC
:1007700040F4302048600846006820F00F00086010
:100780000846006840F00B00086000204FF0204150
:100790008861C861264908604FF02040806940F4B4
:1007A00080504FF0204188610846806940F48040C5
:1007B00088610846806940F0100088610846C06979
:1007C000C8610846C06940F00100C8610846C069B8
:1007D00040F47060C86116480068C1F81C011448F4
:1007E0000068C1F81C010846D0F81C0140F44070B4
:1007F000C1F81C010846806940F00100886100F0E2
:1008000019F805481030006840F001000249103125
:10081000086000BD00100240000C014004140140BB
:1008200000F0FF00BB0B00BB04180140002001409A
:100830001C0100A000B5012000F084F9112000F097
:1008400081F93A2000F07EF9552000F075F9292051
:1008500000F078F9362000F075F9CA2000F06CF944
:1008600000BDF8B507460E4614461D4605F00100CA
:1008700058B10A20009004F1960083B206F10A00F4
:1008800081B23C223846FFF7DDFEC5F3400058B187
:100890004120009004F1550083B206F1460081B278
:1008A0000A223846FFF7CEFEC5F3800058B141203A
:1008B000009004F10A0083B206F1460081B20A22D8
:1008C0003846FFF7BFFEC5F3C00048B10A200090CC
:1008D00006F10A0081B223463C223846FFF7B2FEF9
:1008E000C5F3001048B14120009004F10A0083B222
:1008F0000A2231463846FFF7A5FEC5F3401048B13D
:100900004120009004F1550083B20A223146384656
:10091000FFF798FEC5F3801058B10A20009004F14B
:100920004B0083B206F10A0081B23C223846FFF741
:1009300089FEF8BD2DE9F04F04460D4616469A464D
:10094000DDF8249010224FF0080B202E01DB7F2EC3
:1009500001DDBDE8F08FA6F12000C6B22A2000F02C
:10096000F1F8201200F0E8F8E0B200F0E5F80BEB47
:100970000401491EC1F30F2000F0DEF80BEB040167
:10098000491EC8B200F0D8F82B2000F0DBF828127E
:1009900000F0D2F8E8B200F0CFF85119491EC1F3C7
:1009A0000F2000F0C9F85119491EC8B200F0C4F870
:1009B0002C2000F0C7F8002327E04FF000081DE0CE
:1009C000002715E0154800EB0610012101EB470157
:1009D000C91A405C40FA08F000F0010018B1504616
:1009E00000F0AAF802E0484600F0A6F8781CC7B26A
:1009F0005F45E7DB08F1010000F0FF0802EBD27170
:100A0000B8EB610FDCDB581CC3B2D11702EB51719C
:100A1000B3EBE10FD1DB00BF9BE700009C170008A0
:100A20002DE9F84F0546884616461F46DDE90A9A25
:100A300000240DE016F804B005EBC40188B24B4663
:100A40005A464146CDF800A0FFF774FF601C84B2FF
:100A5000BC42EFDBBDE8F88F2DE9F04F04460D46B0
:100A600017469A46DDF82490102293460A2F01DBA0
:100A7000BDE8F08F2A2000F065F8201200F05CF845
:100A8000E0B200F059F80BEB0401491EC1F30F204E
:100A900000F052F80BEB0401491EC8B200F04CF80C
:100AA0002B2000F04FF8281200F046F8E8B200F0D2
:100AB00043F85119491EC1F30F2000F03DF85119B8
:100AC000491EC8B200F038F82C2000F03BF8002393
:100AD00027E04FF000081DE0002615E0154800EB68
:100AE0004710012101EB4601C91A405C40FA08F0A9
:100AF00000F0010018B1504600F01EF802E0484630
:100B000000F01AF8701CC6B25E45E7DB08F1010080
:100B100000F0FF0802EBD271B8EB610FDCDB581C70
:100B2000C3B2D11702EB5171B3EBE10FD1DB00BFC0
:100B30009EE700008C1D00080149088070470000F6
:100B40000008006C0149088070470000FE07006C37
:100B500007210020234A5268234B1A40214B5A6038
:100B60001A461268214B1A401E4B1A601A46126828
:100B700042F480321A6000BF1A4A1268520C002AEE
:100B8000FAD04FF48062174B5A601A46526842EA14
:100B900081425A601A46526842F480325A60144ABE
:100BA000126842F03202124B1A600E4A126842F08A
:100BB00080720C4B1A6000BF0A4A1268520E002A5B
:100BC000FAD0084A526842F00202064B5A6005E029
:100BD000044A5268C2F3870000F003000228F7D1EC
:100BE00070470000001002400000FFF8FFFFF6FE13
:100BF0000020024030B5A3B004460D46E3A207CA68
:100C000020AB07C3E4A207CA1DAB07C3E5A2D2E924
:100C100000109268CDE91B021A911422E4A115A8D4
:100C2000FFF72EFB1C22E7A10EA8FFF729FB1422D9
:100C3000EBA109A8FFF724FB1C22EEA102A8FFF7F5
:100C40001FFB4FF4A0700023F022194600902046AD
:100C5000FFF7F8FC4FF47C400B231AAA4FF48C7179
:100C6000CDE900044620FFF7DBFE0020112315AA82
:100C7000F021CDE900040A20FFF7D2FE00201A235C
:100C80000EAADC21CDE900040A20FFF7C9FE3C20B2
:100C90008C230246142100904FF6FF70FFF7D2FC20
:100CA0003C208C2302465A2100904FF6FF70FFF73C
:100CB000C9FC3C208C230246A02100904FF6FF7017
:100CC000FFF7C0FC4FF6FF7000233122A4210090F3
:100CD0002C20FFF72FFE4FF6FF7000233222A421B5
:100CE00000907220FFF726FE4FF6FF70002333229C
:100CF000A4210090B820FFF71DFE0020142309AAAC
:100D00006421CDE900040A20FFF78AFE00201B239E
:100D100002AA5021CDE900040A20FFF781FE00203D
:100D20000A2320AA1021CDE900045020FFF778FE05
:100D300000200A231DAA2021CDE900045020FFF73E
:100D40006FFE00231A46102140200094FFF784FE16
:100D500000230122202140200094FFF77DFE10E1B6
:100D6000AB4800680B287DDBAA480078F02845D006
:100D7000A9480078692841D10120A84908603E208F
:100D80008B23F022002100902046FFF75BFC3C20E3
:100D90008C230246142100904FF48260FFF752FC2E
:100DA0003C208C2302465A2100904FF6FF70FFF73B
:100DB00049FC3C208C230246A02100904FF6FF7096
:100DC000FFF740FC4FF482604FF6FF733122A421FD
:100DD00000902C20FFF7AEFD4FF6FF70002332226B
:100DE000A42100907220FFF7A5FD4FF6FF700023AD
:100DF0003322A4210090B820FFF79CFD854800789D
:100E0000F02847D084480078722843D102208349D3
:100E100008603E208B23F022002100902046FFF73F
:100E200011FC3C208C230246142100904FF6FF70E9
:100E3000FFF708FC3C208C2302465A2100904FF417
:100E40008260FFF7FFFB3C208C230246A02100902C
:100E50004FF6FF70FFF7F6FB4FF6FF7000233122CD
:100E6000A42100E081E000902C20FFF763FD4FF407
:100E700082604FF6FF733222A42100907220FFF7A8
:100E800059FD4FF6FF7000233322A4210090B820B3
:100E9000FFF750FD5F480078F02845D05E480078A5
:100EA0007A2841D103205D4908603E208B23F0223F
:100EB000002100902046FFF7C5FB3C208C23024612
:100EC000142100904FF6FF70FFF7BCFB3C208C23F1
:100ED00002465A2100904FF6FF70FFF7B3FB3C200B
:100EE0008C230246A02100904FF48260FFF7AAFBFA
:100EF0004FF6FF7000233122A42100902C20FFF731
:100F000019FD4FF6FF7000233222A42100907220B9
:100F1000FFF710FD4FF482604FF6FF733322A421D8
:100F20000090B820FFF706FD3A480078F02813D06B
:100F3000394800785A280FD14FF4A0700023F022CE
:100F4000194600901846FFF77DFB3548006840F0D1
:100F500020003349086015E02F4800782D490870BB
:100F600000202B4908602C4908706D1E35B944F6E5
:100F70002065002028490870254908602948FFF7A6
:100F800016FAEDE600BF23B030BD00003131353533
:100F90003037363732370000313135353037363774
:100FA00033300000466C61707079204269726400D1
:100FB000507265737320312032206F722033207499
:100FC0006F00000063686F6F73652061206469665D
:100FD000666963756C7479206C6576656C2E0000AB
:100FE000507265737320456E74657220746F205360
:100FF000746172745072657373202B20746F204C6F
:10100000657420746865204269726420466C7900BA
:101010000C0000201100002010000020140000200F
:101020001418014040420F0000BFFEE770477047B0
:10103000704710B500F002F810BD00000CB500209C
:10104000019000903348006840F4803031490860D6
:1010500000BF3048006800F4003000900198401C48
:101060000190009818B90198B0F5A06FF1D1294806
:10107000006800F4003010B10120009001E0002071
:1010800000900098012843D12348006840F01000E8
:10109000214908600846006820F0030008600846FF
:1010A000006840F0020008601A484068194948602A
:1010B0000846406848600846406840F480604860E0
:1010C0000846406820F47C1048600846406840F4B8
:1010D000E81048600846006840F08070086000BF73
:1010E0000C48006800F000700028F9D009484068FA
:1010F00020F00300074948600846406840F00200BD
:10110000486000BF0348406800F00C000828F9D18F
:101110000CBD00000010024000200240054800788D
:10112000401C0449087004480078401C02490870BB
:1011300070470000000000200100002010B5134897
:10114000006840F0010011490860084640681049F5
:1011500008400E494860084600680E4908400B499F
:1011600008600846006820F480200860084640684F
:1011700020F4FE0048604FF41F008860FFF759FF1D
:101180004FF000600449086010BD000000100240EC
:101190000000FFF8FFFFF6FE08ED00E000BFFEE7ED
:1011A00038B5044614480078012823DD1C2000903F
:1011B0001248008883B21248008881B2222200209F
:1011C000FFF740FA0D480068001B0C49086008460C
:1011D00000681830002802DA4FF4A070086000237D
:1011E0000222064801680648006800F033F8002033
:1011F0000149087038BD00000000002008000020F0
:101200000400002038B50546681CC4B214E023462B
:10121000502211460020FFF797F90D48FFF7C7F855
:101220004FF4A0700023F022194600904FF6FF7093
:10123000FFF708FA601EC4B2002CE8DC4FF4A0707F
:101240000023F022194600901846FFF7FBF938BD3D
:10125000404B4C002DE9F84F81468A4614469B4688
:10126000FFF72CFA002554E000264FE0BBF1000FF9
:1012700003D106FB049705FB04A8BBF1010F05D1C0
:1012800005FB0497C6F1100000FB04A805EB051050
:1012900022490844805D062836D2DFE800F00304C6
:1012A0000D17212B30E01FFA88F3B9B22246002037
:1012B0000094FFF7C7F927E01FFA88F3B9B2224676
:1012C0004FF6FF700094FFF7BDF91DE01FFA88F399
:1012D000B9B222464FF620700094FFF7B3F913E03D
:1012E0001FFA88F3B9B222464EF661500094FFF718
:1012F000A9F909E01FFA88F3B9B222464FF6403047
:101300000094FFF79FF900BF00BF761C112EADDBE4
:101310006D1C0C2DA8DBBDE8F88F0000CC1D00086B
:101320002DE9F84F04468A4693464FF01E080BEB12
:101330008B00282101EB400085B2A1B20023424678
:1013400050460095FFF77EF90A200090A81C83B252
:1013500008F10A02601F81B25046FFF773F90027B7
:101360001BE0B9B2A21E90B20022FFF743F9B9B256
:10137000621E90B20022FFF73DF9B9B204EB0802F9
:1013800090B20022FFF736F9B9B204EB0802521C02
:1013900090B20022FFF72EF97F1CAF42E1DB00265E
:1013A00024E0AA19521C91B2E21F90B20022FFF76A
:1013B00021F9AA19521C91B2A21F90B20022FFF784
:1013C00019F9AA19521C91B204EB0802521D90B2ED
:1013D0000022FFF70FF9AA19521C91B204EB080280
:1013E000921D90B20022FFF705F9761C0B2ED8DB78
:1013F0004FF0000911E0E11F494488B2002229465C
:10140000FFF7F8F805F10C0291B2E21F4A4490B2DE
:101410000022FFF7EFF809F10109B9F12C0FEADB1F
:10142000BDE8F88F2DE9F04105460E4617461C46EB
:101430003A4631462846FFF773FF22463146284692
:1014400000F002F8BDE8F0812DE9F84F04468A4625
:1014500093464FF01E080BEB8B00282101EB400058
:1014600085B2C5F5A07083B2A1B242465046009540
:10147000FFF7E8F80A20009040F23510401B83B2D5
:1014800008F10A02601F81B25046FFF7DBF800271F
:1014900027E040F23F12D21B91B2A21E90B200226E
:1014A000FFF7A8F840F23F12D21B91B2621E90B231
:1014B0000022FFF79FF840F23F12D21B91B204EBDB
:1014C000080290B20022FFF795F840F23F12D21BBB
:1014D00091B204EB0802521C90B20022FFF78AF886
:1014E0007F1CAF42D5DB002630E0AA19521C40F227
:1014F0003F139A1A91B2E21F90B20022FFF77AF8D6
:10150000AA19521C40F23F139A1A91B2A21F90B22C
:101510000022FFF76FF8AA19521C40F23F139A1AE3
:1015200091B204EB0802521D90B20022FFF762F85C
:10153000AA19521C40F23F139A1A91B204EB080206
:10154000921D90B20022FFF755F8761C0B2ECCDBD3
:101550004FF0000917E040F23F12521B91B2E21F18
:101560004A4490B20022FFF745F805F10C0240F220
:101570003F139A1A91B2E21F4A4490B20022FFF739
:1015800039F809F10109B9F12C0FE4DBBDE8F88F56
:1015900038B504460D46234800680B2838DB22483E
:1015A0000078F0281DD021480078792819D11C2016
:1015B00000901F48008883B21E48008881B2222212
:1015C0000020FFF73FF81A480068284418490860CF
:1015D000002302220846016816480068FFF73AFE19
:1015E0000DE011480078F02809D1104800787928DA
:1015F00005D11148006840F020000F4908600B48F1
:1016000000780949087000200649086007490870F9
:10161000641E34B944F6206400200449087001496E
:10162000086038BD0C0000201100002010000020D0
:101630000800002004000020100C014086B044F691
:10164000206BF02404F1780804F1F00918216846B1
:10165000FEF748FE28204C4908608A204B49086064
:101660004FF0000A0AE0FEF7B3FD092190FBF1F20A
:1016700001FB12004DF82A000AF1010ABAF1050F28
:10168000F1DBFFF71BF8FFF7D5F8FFF761FAFEF77C
:10169000C3FEFEF74BFFFEF701FF0520FEF7ECFE51
:1016A0003B48FEF784FE3B480068012804D002282E
:1016B00006D003280CD107E002260225122707E0F6
:1016C000042604251C2703E008260825262700BF3A
:1016D00000BF58E0594648F2FF70FFF78BFA2D48DB
:1016E0000068012804D0022806D003280CD107E0A6
:1016F00001260125102707E002260225122703E014
:1017000003260325142700BF00BF0320FFF77AFD3F
:1017100038E039465846FFF73BFF3046FFF740FDBB
:101720001D48007802282DDD641BA8EB0508A9EBF5
:10173000050904F12C00002800DAF02408F12C003F
:10174000002801DA04F1780809F12C00002801DAF8
:1017500004F1F0094FF4FC612046DDE90023FFF7B6
:1017600061FE4FF4FC614046DDE90223FFF75AFEBB
:101770004FF4FC614846DDE90423FFF753FE0020E7
:1017800005490870C5E7A5E704000020080000200F
:1017900040420F0014000020010000200000000063
:1017A0000000000000000000000000000000000039
:1017B00000001FCC000C000000000000000008002A
:1017C000300060000800300060000000022003FCD0
:1017D0001E20022003FC1E200220000000000E1824
:1017E00011043FFF10840C78000000000F001084EB
:1017F0000F3800C0077818840078000000780F8444
:1018000010C411240E9800E4008400080800680049
:101810007000000000000000000000000000000058
:10182000000007E0181820044002000000004002F9
:101830002004181807E000000000000002400240E9
:1018400001800FF001800240024000000080008013
:1018500000800FF800800080008000000001000D73
:10186000000E0000000000000000000000000080EA
:101870000080008000800080008000800000000C5C
:10188000000C000000000000000000000000000646
:10189000001800600180060018002000000007F01A
:1018A000080810041004080807F0000000000804ED
:1018B00008041FFC000400040000000000000E0CDF
:1018C00010141024104411840E0C000000000C1899
:1018D00010041104110412880C700000000000E0D4
:1018E0000320042408241FFC0024000000001F988B
:1018F000108411041104108810700000000007F01B
:1019000008881104110418880070000000001C00F1
:10191000100010FC13001C001000000000000E3826
:1019200011441084108411440E3800000000070098
:10193000088C10441044088807F0000000000000E4
:101940000000030C030C0000000000000000000079
:1019500000010106000000000000000000000080FF
:101960000140022004100808100400000220022098
:1019700002200220022002200220000000001004A9
:1019800008080410022001400080000000000E0042
:101990001200100C106C10800F00000003E00C18F7
:1019A00013E4142417C4082807D000000004003CE6
:1019B00003C41C40074000E4001C000410041FFC8A
:1019C0001104110411040E880070000003E00C18CB
:1019D00010041004100410081C10000010041FFC58
:1019E000100410041004080807F0000010041FFC85
:1019F0001104110417C410040818000010041FFC7F
:101A00001104110017C010000800000003E00C18BA
:101A10001004100410441C780040000010041FFC47
:101A200010840080008010841FFC1004000010044B
:101A300010041FFC1004100400000000000300014B
:101A4000100110011FFE10001000000010041FFC08
:101A5000110403801464181C1004000010041FFCFF
:101A60001004000400040004000C000010041FFC1B
:101A70001F0000FC1F001FFC1004000010041FFCCE
:101A80000C04030000E010181FFC100007F0080809
:101A9000100410041004080807F0000010041FFCD4
:101AA00010841080108010800F00000007F00818CC
:101AB00010241024101C080A07F2000010041FFC58
:101AC0001104110011C011300E0C000400000E1C96
:101AD00011041084108410441C38000018001000F9
:101AE00010041FFC100410001800000010001FF864
:101AF00010040004000410041FF8100010001E0061
:101B000011E0001C007013801C0010001FC0103C6E
:101B100000E01F0000E0103C1FC000001004180C83
:101B2000163401C001C01634180C100410001C003B
:101B3000130400FC13041C00100000000804101C17
:101B40001064108413041C0410180000000000002E
:101B500000007FFE40024002400200000000300012
:101B60000C0003800060001C000300000000400225
:101B7000400240027FFE0000000000000000000064
:101B80002000400040004000200000000001000153
:101B900000010001000100010001000100004000FF
:101BA000400020000000000000000000000000983D
:101BB000012401440144014400FC000410001FFC06
:101BC000008801040104008800700000000000701B
:101BD0000088010401040104008800000000007076
:101BE00000880104010411081FFC0004000000F833
:101BF000014401440144014400C800000000010404
:101C000001040FFC1104110411001800000000D69B
:101C100001290129012901C90106000010041FFC46
:101C2000008401000100010400FC00040000010424
:101C3000190419FC00040004000000000000000367
:101C400000010101190119FE0000000010041FFC31
:101C50000024004001B4010C010400000000100445
:101C600010041FFC0004000400000000010401FC3B
:101C70000104010001FC0104010000FC010401FC5D
:101C8000008401000100010400FC0004000000F8D1
:101C9000010401040104010400F80000010101FF36
:101CA000008501040104008800700000000000703D
:101CB000008801040104010501FF00010104010481
:101CC00001FC00840104010001800000000000CC40
:101CD00001240124012401240198000000000100D6
:101CE000010007F80104010400000000010001F8F0
:101CF000000400040004010801FC0004010001804C
:101D00000170000C001001600180010001F0010C65
:101D1000003001C00030010C01F00100000001049E
:101D2000018C00740170018C01040000010101812B
:101D30000171000E001801600180010000000184A3
:101D4000010C013401440184010C0000000000007A
:101D50000000000001003EFC4002400200000000C4
:101D600000000000FFFF0000000000000000400233
:101D700040023EFC01000000000000000000600086
:101D80008000800040004000200020000000000390
:101D90000003C003C003C183C183FFFFFFFFC183F2
:101DA000C183C003C003000300030000020042001F
:101DB00033FC000800327FE4C92A49317FFE0480E9
:101DC00004620401FFFE04000400000000000000A3
:101DD00000000001010101000000000000000000FF
:101DE00000000101040404040101010101000000DC
:101DF00000000104040404040105050505010000B8
:101E000000010101040404040105010101010100B4
:101E10000001030303010303030301050505050591
:101E20000101030202020301030303030101010193
:101E30000100010202020202010303030102020285
:101E40000100000102020202010303030102020178
:101E5000020100000001010101030303030102026A
:101E6000010201000000000001030303030301025B
:101E7000020201000000000000000101030303034F
:101E8000010201000000000000000000000101014B
:101E90000101010000000000B81E00080000002041
:101EA000180000006C010008D01E00081800002077
:101EB0004807000088010008000000000000000042
:101EC0000000000000000000000000000100000011
:0400000508000205E8
:00000001FF
