:020000040800F2
:1000000048070020050200080907000857030008F8
:1000100005070008450300087908000800000000F3
:100020000000000000000000000000000D070008B4
:1000300049030008000000000B070008F90700084A
:100040001F0200081F0200081F0200081F0200080C
:100050001F0200081F0200081F0200081F020008FC
:100060001F0200081F0200081F0200081F020008EC
:100070001F0200081F0200081F0200081F020008DC
:100080001F0200081F0200081F0200081F020008CC
:100090001F0200081F0200081F0200081F020008BC
:1000A0001F0200081F0200081F0200081F020008AC
:1000B0001F0200081F0200081F0200081F0200089C
:1000C0001F0200081F0200081F0200081F0200088C
:1000D0001F0200081F0200081F0200081F0200087C
:1000E0001F0200081F0200081F0200081F0200086C
:1000F0001F0200081F0200081F0200081F0200085C
:100100001F0200081F0200081F0200081F0200084B
:100110001F0200081F0200081F0200081F0200083B
:100120001F0200081F0200081F0200081F0200082B
:1001300000F002F800F03CF80AA090E8000C8244BD
:100140008344AAF10107DA4501D100F031F8AFF29A
:10015000090EBAE80F0013F0010F18BFFB1A43F0A5
:1001600001031847440C0000640C0000103A24BF3F
:1001700078C878C1FAD8520724BF30C830C144BF0C
:1001800004680C607047000000230024002500264E
:10019000103A28BF78C1FBD8520728BF30C148BFEA
:1001A0000B6070471FB500F062F81FBD10B510BDA1
:1001B00000F090F81146FFF7F5FF00F0FDFC00F0AD
:1001C000AEF803B4FFF7F2FF03BC00F0B5F800008F
:1001D0000B49D1F800C04A685CF8043B1068184429
:1001E00042F8040B8C4528BFA1F1DC0C8A4228BFE1
:1001F000A1F1DC02C1F800C04A6020F00040704765
:10020000E00000200948804709480047FEE7FEE774
:10021000FEE7FEE7FEE7FEE7FEE7FEE7FEE7FEE7B6
:1002200004480549054A064B7047000019080008B4
:100230003101000848010020480700204803002041
:10024000480300200B4910B5A1F17C020A4CC2E919
:100250003712372106E000EB104342F82130074BFC
:1002600000FB03400B1EA1F10101F4DC10BD0120D5
:10027000E8E7000080000020E119D666CD0D0100FE
:100280004FF0000200B5134694469646203922BF2F
:10029000A0E80C50A0E80C50B1F12001BFF4F7AF7A
:1002A000090728BFA0E80C5048BF0CC05DF804EB5C
:1002B000890028BF40F8042B08BF704748BF20F8CA
:1002C000022B11F0804F18BF00F8012B70477047C8
:1002D00070477047754600F029F8AE46050069463C
:1002E000534620F00700854618B020B5FFF798FF69
:1002F000BDE820404FF000064FF000074FF0000827
:100300004FF0000B21F00701AC46ACE8C009ACE8A7
:10031000C009ACE8C009ACE8C0098D467047044686
:10032000AFF300802046FFF74CFF00000048704705
:10033000E80000207047000001491820ABBEFEE72E
:100340002600020000BFFEE77047002100E0491CC4
:100350008142FCD3704700BFFEE70000144880696B
:1003600040F00800124988611248006820F47000CB
:10037000104908600846006840F4401008600C48C6
:10038000806940F040000A4988610B48006820F409
:100390007000094908600846006840F44010086091
:1003A000202004491031086003491031086070476B
:1003B00000100240000C01400018014000204FF0E6
:1003C000E0210861034848610846006940F00300E5
:1003D000086170478F5F010010B503460C462A2064
:1003E00000F038F9181200F02FF9D8B200F02CF90B
:1003F000012000F029F93F2000F026F92B2000F021
:1004000029F9201200F020F9E0B200F01DF90120D6
:1004100000F01AF9DF2000F017F92C2000F01AF98B
:10042000104600F011F910BDF0B507460C46059DC9
:1004300000262A2000F00EF9201200F005F9E0B2A3
:1004400000F002F91119491EC1F30F2000F0FCF869
:100450001119491EC8B200F0F7F82B2000F0FAF885
:10046000181200F0F1F8D8B200F0EEF8E918491EC1
:10047000C1F30F2000F0E8F8E918491EC8B200F0F7
:10048000E3F82C2000F0E6F800BF03E0384600F067
:10049000DBF8761C02FB05F0B042F7D8F0BD000097
:1004A00000B55548406940F480705349486108469A
:1004B000806940F0080088610846806940F02000AB
:1004C00088610846806940F040008861084680697C
:1004D00040F4807088614948006820F00F00474967
:1004E00008600846006840F003000860444800685F
:1004F00044490840424908600846006842490843A8
:100500003F490860081F006800F0FF20091F0860CD
:100510000846006840F0BB1008603C4800680020B6
:100520003A4908600846006840F0BB300860081F80
:10053000006820F07040091F08600846006840F01D
:10054000304008603248406820F4702030494860EC
:100550000846406840F4302048600846006820F0B3
:100560000F0008600846006840F00B00086000209B
:100570004FF020418861C861264908604FF0204053
:10058000806940F480504FF02041886108468069BE
:1005900040F4804088610846806940F0100088611E
:1005A0000846C069C8610846C06940F00100C861DA
:1005B0000846C06940F47060C86116480068C1F818
:1005C0001C0114480068C1F81C010846D0F81C0141
:1005D00040F44070C1F81C010846806940F00100F9
:1005E000886100F019F805481030006840F00100FB
:1005F00002491031086000BD00100240000C0140AB
:100600000414014000F0FF00BB0B00BB04180140C4
:10061000002001401C0100A000B5012000F01AF8E4
:10062000112000F017F83A2000F014F8552000F0DF
:100630000BF8292000F00EF8362000F00BF8CA2045
:1006400000F002F800BD000001490880704700007A
:100650000008006C0149088070470000FE07006C2C
:1006600007210020234A5268234B1A40214B5A602D
:100670001A461268214B1A401E4B1A601A4612681D
:1006800042F480321A6000BF1A4A1268520C002AE3
:10069000FAD04FF48062174B5A601A46526842EA09
:1006A00081425A601A46526842F480325A60144AB3
:1006B000126842F03202124B1A600E4A126842F07F
:1006C00080720C4B1A6000BF0A4A1268520E002A50
:1006D000FAD0084A526842F00202064B5A6005E01E
:1006E000044A5268C2F3870000F003000228F7D1E1
:1006F00070470000001002400000FFF8FFFFF6FE08
:100700000020024000BFFEE770477047704710B5F9
:1007100000F002F810BD00000CB500200190009020
:100720003348006840F480303149086000BF3048E9
:10073000006800F4003000900198401C019000987F
:1007400018B90198B0F5A06FF1D12948006800F4FC
:10075000003010B10120009001E0002000900098CE
:10076000012843D12348006840F010002149086067
:100770000846006820F0030008600846006840F062
:10078000020008601A4840681949486008464068F5
:1007900048600846406840F4806048600846406809
:1007A00020F47C1048600846406840F4E810486037
:1007B0000846006840F08070086000BF0C48006880
:1007C00000F000700028F9D00948406820F00300CC
:1007D000074948600846406840F00200486000BF92
:1007E0000348406800F00C000828F9D10CBD000057
:1007F000001002400020024005480078401C0449D7
:10080000087004480078401C0249087070470000D6
:10081000000000200100002010B51348006840F0DF
:1008200001001149086008464068104908400E4917
:100830004860084600680E4908400B4908600846B1
:10084000006820F4802008600846406820F4FE001C
:1008500048604FF41F008860FFF759FF4FF00060B9
:100860000449086010BD0000001002400000FFF8BD
:10087000FFFFF6FE08ED00E000BFFEE72DE9F84FB0
:1008800081468A4614469B46FFF70AFE002554E03F
:1008900000264FE0BBF1000F03D106FB049705FBD8
:1008A00004A8BBF1010F05D105FB0497C6F11000A8
:1008B00000FB04A805EB051022490844805D0628CA
:1008C00036D2DFE800F003040D17212B30E01FFAC9
:1008D00088F3B9B2224600200094FFF7A5FD27E077
:1008E0001FFA88F3B9B222464FF6FF700094FFF763
:1008F0009BFD1DE01FFA88F3B9B222464FF6207027
:100900000094FFF791FD13E01FFA88F3B9B2224675
:100910004EF661500094FFF787FD09E01FFA88F357
:10092000B9B222464FF640300094FFF77DFD00BF7C
:1009300000BF761C112EADDB6D1C0C2DA8DBBDE8B5
:10094000F88F0000DC0C00082DE9F84F04468A46B9
:1009500093464FF01E080BEB8B00282101EB400063
:1009600085B2A1B20023424650460095FFF75CFDD8
:100970000A200090A81C83B208F10A02601F81B20D
:100980005046FFF751FD00271BE0B9B2A21E90B2FE
:100990000022FFF721FDB9B2621E90B20022FFF7DC
:1009A0001BFDB9B204EB080290B20022FFF714FD60
:1009B000B9B204EB0802521C90B20022FFF70CFD02
:1009C0007F1CAF42E1DB002624E0AA19521C91B241
:1009D000E21F90B20022FFF7FFFCAA19521C91B24D
:1009E000A21F90B20022FFF7F7FCAA19521C91B285
:1009F00004EB0802521D90B20022FFF7EDFCAA1989
:100A0000521C91B204EB0802921D90B20022FFF733
:100A1000E3FC761C0B2ED8DB4FF0000911E0E11F40
:100A2000494488B200222946FFF7D6FC05F10C02A2
:100A300091B2E21F4A4490B20022FFF7CDFC09F1C7
:100A40000109B9F12C0FEADBBDE8F88F2DE9F0417F
:100A500005460E4617461C463A4631462846FFF7DD
:100A600073FF22463146284600F002F8BDE8F081C7
:100A70002DE9F84F04468A4693464FF01E080BEBCB
:100A80008B00282101EB400085B2C5F5A07083B230
:100A9000A1B2424650460095FFF7C6FC0A200090DE
:100AA00040F23510401B83B208F10A02601F81B288
:100AB0005046FFF7B9FC002727E040F23F12D21B57
:100AC00091B2A21E90B20022FFF786FC40F23F12C4
:100AD000D21B91B2621E90B20022FFF77DFC40F261
:100AE0003F12D21B91B204EB080290B20022FFF732
:100AF00073FC40F23F12D21B91B204EB0802521C6D
:100B000090B20022FFF768FC7F1CAF42D5DB0026C5
:100B100030E0AA19521C40F23F139A1A91B2E21F18
:100B200090B20022FFF758FCAA19521C40F23F1362
:100B30009A1A91B2A21F90B20022FFF74DFCAA1997
:100B4000521C40F23F139A1A91B204EB0802521D54
:100B500090B20022FFF740FCAA19521C40F23F134A
:100B60009A1A91B204EB0802921D90B20022FFF78C
:100B700033FC761C0B2ECCDB4FF0000917E040F263
:100B80003F12521B91B2E21F4A4490B20022FFF77B
:100B900023FC05F10C0240F23F139A1A91B2E21FB6
:100BA0004A4490B20022FFF717FC09F10109B9F19C
:100BB0002C0FE4DBBDE8F88F88B04FF028098A25B8
:100BC000F02404F1780604F1F007182102A8FFF7D9
:100BD00057FB4FF000080BE0FFF7FAFA092190FBF2
:100BE000F1F201FB120002A941F8280008F1010806
:100BF000B8F1050FF0DBFFF753FCFFF70DFDFFF732
:100C00002FFDFFF7ABFBFFF7D9FB3048FFF79DFB4C
:100C10004FF4A0700023F022194600901846FFF709
:100C200003FC52E02A48007801281EDD1C20ABB2EC
:100C30001FFA89F1222200900020FFF7F5FB2548DA
:100C4000006880F0200023490860AD1E05F11800FF
:100C5000002801DA4FF4A0750023022229464846F5
:100C6000FFF70CFE00201A4908701B480078022884
:100C70002BDDA41EB61EBF1E04F12C00002800DAD6
:100C8000F02406F12C00002801DA04F1780607F1BF
:100C90002C00002801DA04F1F0074FF4FC61204633
:100CA000DDE90223FFF7D2FE4FF4FC613046DDE9B7
:100CB0000423FFF7CBFE4FF4FC613846DDE9062341
:100CC000FFF7C4FE002004490870ABE740420F0064
:100CD000000000200C0C014001000020000000007A
:100CE0000000000101010100000000000000000000
:100CF00000000101040404040101010101000000DD
:100D000000000104040404040105050505010000B8
:100D100000010101040404040105010101010100B5
:100D20000001030303010303030301050505050592
:100D30000101030202020301030303030101010194
:100D40000100010202020202010303030102020286
:100D50000100000102020202010303030102020179
:100D6000020100000001010101030303030102026B
:100D7000010201000000000001030303030301025C
:100D80000202010000000000000001010303030350
:100D9000010201000000000000000000000101014C
:100DA0000101010000000000C80D00080000002043
:100DB000040000006C010008CC0D000804000020B5
:0C0DC0004407000088010008000000004B
:0400000508000205E8
:00000001FF
