:020000040800F2
:1000000088B1002005020008E9110008CD030008AE
:10001000E511000861030008DD130008000000007E
:10002000000000000000000000000000ED110008CA
:100030006503000800000000EB110008D912000859
:100040001F0200081F0200081F0200081F0200080C
:100050001F0200081F0200081F0200081F020008FC
:100060001F0200081F0200081F0200081F020008EC
:100070001F0200081F0200081F0200081F020008DC
:100080001F0200081F0200081F0200081F020008CC
:100090001F0200081F0200081F0200081F020008BC
:1000A0001F0200081F0200081F0200081F020008AC
:1000B0001F020008591300081F0200081F02000851
:1000C0001F0200081F0200081F0200081F0200088C
:1000D0001F0200081F0200081F0200081F0200087C
:1000E000750300081F0200081F0200081F02000815
:1000F0001F0200081F0200081F0200081F0200085C
:100100001F0200081F0200081F0200081F0200084B
:100110001F0200081F0200081F0200081F0200083B
:100120001F0200081F0200081F0200081F0200082B
:1001300000F002F800F03CF80AA090E8000C8244BD
:100140008344AAF10107DA4501D100F031F8AFF29A
:10015000090EBAE80F0013F0010F18BFFB1A43F0A5
:1001600001031847942D0000B42D0000103A24BF5D
:1001700078C878C1FAD8520724BF30C830C144BF0C
:1001800004680C607047000000230024002500264E
:10019000103A28BF78C1FBD8520728BF30C148BFEA
:1001A0000B6070471FB500F062F81FBD10B510BDA1
:1001B00000F09BF81146FFF7F5FF01F01FFF00F07C
:1001C000B9F803B4FFF7F2FF03BC00F0C3F8000076
:1001D0000B49D1F800C04A685CF8043B1068184429
:1001E00042F8040B8C4528BFA1F1DC0C8A4228BFE1
:1001F000A1F1DC02C1F800C04A6020F00040704765
:1002000020AB00200948804709480047FEE7FEE789
:10021000FEE7FEE7FEE7FEE7FEE7FEE7FEE7FEE7B6
:1002200004480549054A064B70470000F9120008CA
:100230003101000888AB002088B1002088AD002083
:1002400088AD00200B4910B5A1F17C020A4CC2E92F
:100250003712372106E000EB104342F82130074BFC
:1002600000FB03400B1EA1F10101F4DC10BD0120D5
:10027000E8E70000C0AA0020E119D666CD0D010014
:1002800010B5203AC0F00B80B1E81850203AA0E831
:100290001850B1E81850A0E81850BFF4F5AF5FEA65
:1002A000027C24BFB1E81850A0E8185044BF18C918
:1002B00018C0BDE810405FEA827C24BF51F8043BBF
:1002C00040F8043B08BF7047D20728BF31F8023B13
:1002D00048BF11F8012B28BF20F8023B48BF00F8A7
:1002E000012B7047704770477047754600F02CF837
:1002F000AE4605006946534620F00700854618B013
:1003000020B5FFF78DFFBDE820404FF000064FF00D
:1003100000074FF000084FF0000B21F00701AC463A
:10032000ACE8C009ACE8C009ACE8C009ACE8C00959
:100330008D46704710B50446AFF300802046BDE8F7
:100340001040FFF73EBF00000048704728AB002078
:100350007047000001491820ABBEFEE726000200EE
:1003600000BFFEE77047002100E0491C8142FCD33A
:100370007047000000B511480068002810DD0F48E4
:10038000006809280CDA0E488068C0F380200B4909
:100390000978491E88400B490978084309490870C3
:1003A00006480068401C054908600A20FFF7DBFF8B
:1003B0004FF400600449086000BD000020000020E8
:1003C00000100140240000201404014000BFFEE79B
:1003D0001448806940F0080012498861124800689A
:1003E00020F47000104908600846006840F440108E
:1003F00008600C48806940F040000A4988610B4859
:10040000006820F47000094908600846006840F45C
:100410004010086020200449103108600349103161
:100420000860704700100240000C014000180140B5
:10043000014601F007021202044B18684FF6FF0351
:10044000184003481043014B186070470CED00E062
:100450000000FA051D48806940F010001B498861C2
:100460001B48406820F47F401949486008464068AE
:1004700040F4084048601548806940F00100134985
:1004800088611448006920F47041124801610069D4
:1004900040F400510F4801610F48006840F40060CB
:1004A0000D4908600C480C30006840F400600A49AF
:1004B0000C3108603521094801700948006840F492
:1004C00080704FF0E021C1F8040170470010024035
:1004D00000100140000001400004014028E400E059
:1004E00004E100E000204FF0E0210861034848618A
:1004F0000846006940F00300086170478F5F010003
:10050000F0B505460E4617461C460A2C4CD2DFE8CD
:1005100004F0050C131A21282F363D443F233A4698
:100520003146284600F079F93EE006233A46314646
:10053000284600F072F937E05B233A4631462846F8
:1005400000F06BF930E04F233A463146284600F080
:1005500064F929E066233A463146284600F05DF901
:1005600022E06D233A463146284600F056F91BE05A
:100570007D233A463146284600F04FF914E0072320
:100580003A463146284600F048F90DE07F233A46C6
:100590003146284600F041F906E06F233A463146DD
:1005A000284600F03AF900BF00BFF0BD10B5034681
:1005B0000C462A2000F0A2FA181200F099FAD8B2DC
:1005C00000F096FA012000F093FA3F2000F090FA34
:1005D0002B2000F093FA201200F08AFAE0B200F02B
:1005E00087FA012000F084FADF2000F081FA2C2045
:1005F00000F084FA104600F07BFA10BDF0B5074613
:100600000C46059D00262A2000F078FA201200F002
:100610006FFAE0B200F06CFA1119491EC1F30F2015
:1006200000F066FA1119491EC8B200F061FA2B20D9
:1006300000F064FA181200F05BFAD8B200F058FA31
:10064000E918491EC1F30F2000F052FAE918491EBB
:10065000C8B200F04DFA2C2000F050FA00BF03E0C1
:10066000384600F045FA761C02FB05F0B042F7D898
:10067000F0BD000000B55548406940F48070534912
:1006800048610846806940F0080088610846806932
:1006900040F0200088610846806940F04000886191
:1006A0000846806940F4807088614948006820F0FD
:1006B0000F00474908600846006840F003000860E2
:1006C00044480068444908404249086008460068B8
:1006D000424908433F490860081F006800F0FF20B6
:1006E000091F08600846006840F0BB1008603C48DD
:1006F000006800203A4908600846006840F0BB30B6
:100700000860081F006820F07040091F0860084654
:10071000006840F0304008603248406820F47020A3
:10072000304948600846406840F430204860084638
:10073000006820F00F0008600846006840F00B00D9
:10074000086000204FF020418861C8612649086098
:100750004FF02040806940F480504FF02041886184
:100760000846806940F4804088610846806940F00E
:10077000100088610846C069C8610846C06940F039
:100780000100C8610846C06940F47060C86116483D
:100790000068C1F81C0114480068C1F81C01084633
:1007A000D0F81C0140F44070C1F81C010846806973
:1007B00040F00100886100F019F805481030006829
:1007C00040F0010002491031086000BD00100240F5
:1007D000000C01400414014000F0FF00BB0B00BB03
:1007E00004180140002001401C0100A000B50120B8
:1007F00000F084F9112000F081F93A2000F07EF930
:10080000552000F075F9292000F078F9362000F025
:1008100075F9CA2000F06CF900BDF8B507460E4620
:1008200014461D4605F0010058B10A20009004F15D
:10083000960083B206F10A0081B23C223846FFF7E7
:10084000DDFEC5F3400058B14120009004F1550091
:1008500083B206F1460081B20A223846FFF7CEFE87
:10086000C5F3800058B14120009004F10A0083B222
:1008700006F1460081B20A223846FFF7BFFEC5F3F3
:10088000C00048B10A20009006F10A0081B2234658
:100890003C223846FFF7B2FEC5F3001048B14120B4
:1008A000009004F10A0083B20A2231463846FFF76D
:1008B000A5FEC5F3401048B14120009004F1550059
:1008C00083B20A2231463846FFF798FEC5F38010FE
:1008D00058B10A20009004F14B0083B206F10A00DF
:1008E00081B23C223846FFF789FEF8BD2DE9F04F72
:1008F00004460D4616469A46DDF8249010224FF025
:10090000080B202E01DB7F2E01DDBDE8F08FA6F164
:100910002000C6B22A2000F0F1F8201200F0E8F81A
:10092000E0B200F0E5F80BEB0401491EC1F30F2023
:1009300000F0DEF80BEB0401491EC8B200F0D8F855
:100940002B2000F0DBF8281200F0D2F8E8B200F01B
:10095000CFF85119491EC1F30F2000F0C9F8511901
:10096000491EC8B200F0C4F82C2000F0C7F80023DC
:1009700027E04FF000081DE0002715E0154800EBC8
:100980000610012101EB4701C91A405C40FA08F04A
:1009900000F0010018B1504600F0AAF802E0484605
:1009A00000F0A6F8781CC7B25F45E7DB08F101004C
:1009B00000F0FF0802EBD271B8EB610FDCDB581CD2
:1009C000C3B2D11702EB5171B3EBE10FD1DB00BF22
:1009D0009BE700007A2700082DE9F84F0546884676
:1009E00016461F46DDE90A9A00240DE016F804B009
:1009F00005EBC40188B24B465A464146CDF800A0EB
:100A0000FFF774FF601C84B2BC42EFDBBDE8F88FD7
:100A10002DE9F04F04460D4617469A46DDF824901E
:100A2000102293460A2F01DBBDE8F08F2A2000F048
:100A300065F8201200F05CF8E0B200F059F80BEB1A
:100A40000401491EC1F30F2000F052F80BEB040122
:100A5000491EC8B200F04CF82B2000F04FF82812C5
:100A600000F046F8E8B200F043F85119491EC1F30E
:100A70000F2000F03DF85119491EC8B200F038F8B7
:100A80002C2000F03BF8002327E04FF000081DE089
:100A9000002615E0154800EB4710012101EB460147
:100AA000C91A405C40FA08F000F0010018B1504645
:100AB00000F01EF802E0484600F01AF8701CC6B2BA
:100AC0005E45E7DB08F1010000F0FF0802EBD271A0
:100AD000B8EB610FDCDB581CC3B2D11702EB5171CC
:100AE000B3EBE10FD1DB00BF9EE700006A2D0008E9
:100AF00001490880704700000008006C0149088027
:100B000070470000FE07006C124AD26942F00202F0
:100B1000104BDA61104A1080121F11800E4A203AE1
:100B2000128842F001020C4B203B1A800A4A2C3AF0
:100B3000128842F00102084B2C3B1A804523074AD9
:100B40001370074A126842F000524FF0E023C3F8D6
:100B500000217047001002402C0400401DE400E01A
:100B600000E100E02DE9F05F05460E46300101F09E
:100B7000A5FC8146284905FB01F001F09FFC824657
:100B8000494601F0B9FB0746384601F077FC84B2CC
:100B9000204601F093FC8346394601F06FFD824602
:100BA0004FF0834101F09EFC814601F067FC8046D6
:100BB0004FF6FF7000EA041404EB080084B21748F3
:100BC000806940F00400154988610846C06940F416
:100BD0000030C8611248006820F47F401049086066
:100BE0000846006840F40B4008600C48006940F477
:100BF00000300A4908610846006920F400300861A5
:100C000008480480001D008842F208010843054995
:100C1000091D0880BDE8F09F40420F00001002400F
:100C2000000801400844004007210020234A526880
:100C3000234B1A40214B5A601A461268214B1A4026
:100C40001E4B1A601A46126842F480321A6000BFC6
:100C50001A4A1268520C002AFAD04FF48062174BDD
:100C60005A601A46526842EA81425A601A465268ED
:100C700042F480325A60144A126842F03202124B37
:100C80001A600E4A126842F080720C4B1A6000BF64
:100C90000A4A1268520E002AFAD0084A526842F0F4
:100CA0000202064B5A6005E0044A5268C2F387000C
:100CB00000F003000228F7D1704700000010024046
:100CC0000000FFF8FFFFF6FE002002402DE9F04192
:100CD000A4B004460E46F5A1D1E900028968CDE929
:100CE00022212190F4A207CA1EAB07C3F5A2D2E9C4
:100CF00000109268CDE91C021B911422F4A116A8E1
:100D0000FFF7BEFA1C22F7A10FA8FFF7B9FA1422C9
:100D1000FBA10AA8FFF7B4FA1C22FEA103A8FFF763
:100D2000AFFA4FF4A0700023F0221946009020463D
:100D3000FFF764FC4FF47C400B231BAA4FF48C712B
:100D4000CDE900044620FFF747FE0020112316AA34
:100D5000F021CDE900040A20FFF73EFE00201A230F
:100D60000FAADC21CDE900040A20FFF735FE3C2064
:100D70008C230246142100904FF6FF70FFF73EFCD3
:100D80003C208C2302465A2100904FF6FF70FFF75B
:100D900035FC3C208C230246A02100904FF6FF70CA
:100DA000FFF72CFC4FF6FF7000233122A4210090A6
:100DB0002C20FFF79BFD4FF6FF7000233222A42169
:100DC00000907220FFF792FD4FF6FF700023332250
:100DD000A4210090B820FFF789FD002014230AAA5F
:100DE0006421CDE900040A20FFF7F6FD00201B2353
:100DF00003AA5021CDE900040A20FFF7EDFD0020F1
:100E00000A2321AA0821CDE900045020FFF7E4FDC0
:100E100000200A231EAA2021CDE900045020FFF75C
:100E2000DBFD00231A46082120200094FFF7F0FD87
:100E300000230222082130200094FFF7E9FD00235F
:100E40000322082140200094FFF7E2FD0023012245
:100E5000202108460094FFF7DBFD00230422202117
:100E600030200094FFF7D4FD0023052220214020EC
:100E70000094FFF7CDFD4FF000080BE0FFF7A8F955
:100E8000092190FBF1F201FB1200A94941F8280069
:100E900008F10108B8F1060FF0DB00250EE000278D
:100EA00008E0002007EB0711A24A02EBC10141F85C
:100EB00025007F1CB7F5A07FF3DB6D1C222DEEDB38
:100EC000F0209D4908600846006864309B4908602E
:100ED00099480068C8309A490860282099490860F4
:100EE0008A2099490860002098490860984800685D
:100EF00040F020009649086069E1964800680B2898
:100F00007EDB95480078F02845D194480078692820
:100F100041D10120924908603E208B23F02200211C
:100F200000902046FFF76AFB3C208C2302461421E8
:100F300000904FF48260FFF761FB3C208C23024657
:100F40005A2100904FF6FF70FFF758FB3C208C238E
:100F50000246A02100904FF6FF70FFF74FFB4FF4C1
:100F600082604FF6FF733122A42100902C20FFF7FE
:100F7000BDFC4FF6FF7000233222A42100907220A6
:100F8000FFF7B4FC4FF6FF7000233322A42100903A
:100F9000B820FFF7ABFC70480078F02847D16F48C5
:100FA0000078722843D102206D4908603E208B23CF
:100FB000F022002100902046FFF720FB3C208C23EC
:100FC0000246142100904FF6FF70FFF717FB3C20FC
:100FD0008C2302465A2100904FF48260FFF70EFBEB
:100FE0003C208C230246A02100904FF6FF70FFF7B3
:100FF00005FB4FF6FF7000233122A421009000E092
:10100000D9E02C20FFF772FC4FF482604FF6FF739B
:101010003222A42100907220FFF768FC4FF6FF7087
:1010200000233322A4210090B820FFF75FFC4A4838
:101030000078F02838D1494800787A2834D1032044
:10104000474908603E208B23F02200210090204673
:10105000FFF7D4FA3C208C230246142100904FF66F
:10106000FF70FFF7CBFA3C208C2302465A210090F8
:101070004FF6FF70FFF7C2FA3C208C230246A021F6
:1010800000904FF48260FFF7B9FA4FF6FF7000232B
:101090003122A42100902C20FFF728FC4FF6FF708E
:1010A00000233222A4215DE06AE0000031313535B1
:1010B0003037363732370000313135353037363753
:1010C00033300000466C61707079204269726400B0
:1010D000507265737320312032206F722033207478
:1010E0006F00000063686F6F73652061206469663C
:1010F000666963756C7479206C6576656C2E00008A
:10110000507265737320456E74657220746F20533E
:10111000746172745072657373202B20746F204C4D
:10112000657420746865204269726420466C790099
:101130002C000020440000200C00002010000020A3
:1011400014000020040000200800002018000020E7
:10115000100C014020000020250000202400002069
:101160002800002000907220FFF7C0FB4FF482603F
:101170004FF6FF733322A4210090B820FFF7B6FB8F
:1011800015480078F0280DD0144800785A2809D165
:101190004FF4A0700023F022194600901846FFF784
:1011A0002DFA15E00D4800780B49087000200C4915
:1011B00008600A490870761E36B944F62066002099
:1011C00006490870064908606420FFF7CCF894E6E9
:1011D00000BF24B0BDE8F0812500002024000020DD
:1011E0002000002000BFFEE770477047704710B531
:1011F00000F002F810BD00000CB500200190009036
:101200003348006840F480303149086000BF3048FE
:10121000006800F4003000900198401C0190009894
:1012200018B90198B0F5A06FF1D12948006800F411
:10123000003010B10120009001E0002000900098E3
:10124000012843D12348006840F01000214908607C
:101250000846006820F0030008600846006840F077
:10126000020008601A48406819494860084640680A
:1012700048600846406840F480604860084640681E
:1012800020F47C1048600846406840F4E81048604C
:101290000846006840F08070086000BF0C48006895
:1012A00000F000700028F9D00948406820F00300E1
:1012B000074948600846406840F00200486000BFA7
:1012C0000348406800F00C000828F9D10CBD00006C
:1012D000001002400020024005480078401C0449EC
:1012E000087004480078401C0249087070470000EC
:1012F000000000200100002010B51348006840F0F5
:1013000001001149086008464068104908400E492C
:101310004860084600680E4908400B4908600846C6
:10132000006820F4802008600846406820F4FE0031
:1013300048604FF41F008860FFF759FF4FF00060CE
:101340000449086010BD0000001002400000FFF8D2
:10135000FFFFF6FE08ED00E00848008800F00100FD
:1013600028B10748006880F020000549086003485C
:10137000008820F0010001490880704710040040F7
:101380000C18014010B5024600201EE0012A0AD1C7
:101390000B5C104C238000BF0E4B1B1F1B88C3F33C
:1013A000C013002BF8D0022A0AD10B5C0A4C238010
:1013B00000BF094B1B1F1B88C3F3C013002BF8D0C1
:1013C000FF2800D104E0431CD8B20B5C002BDDD118
:1013D00000BF10BD043801400444004000BFFEE7D8
:1013E00038B504461048007801281CDD1C20009008
:1013F0000E48008883B20E48008881B222220D4830
:101400000088FFF7FBF809480068001B07490860DF
:1014100000230222084601680548006800F0C0F970
:1014200000200149087038BD00000020080000209D
:10143000040000201C000020394800681430B0F57A
:10144000A07F5DDA36480068002859DD344800681E
:1014500000EB0010334901EBC000D0F884000128F4
:101460004CD02F48006800EB001051F830000128E4
:1014700044D02B48006800EB001001EBC000C06BAB
:1014800001283BD0264800680A3000EB001001EB31
:10149000C000D0F88400012830D0214800680A300C
:1014A00000EB001051F83000012827D01C480068DC
:1014B0000A3000EB001001EBC000C06B01281DD00A
:1014C00017480068173000EB001001EBC000D0F89F
:1014D0008400012812D012480068173000EB001079
:1014E00051F83000012809D00D480068173000EB92
:1014F000001001EBC000C06B012801D10120704732
:1015000007480068002801DA0120F8E7044800686D
:101510001430B0F5A07F01DD0120F0E70020EEE7F8
:1015200008000020440000202DE9F04F85B004465B
:101530000F4690469946A246AAEB070B0121484662
:1015400000F04EFD0E3804900021404600F048FDAA
:101550000A3003900AF125000BF12001451A049886
:10156000C0F5A0700290039801908E1E002E00DA44
:101570000026002D17DD029880B20090049883B2F7
:10158000E81C82B2B1B209480088FFF737F8019829
:10159000C01C80B20090E81C82B2B1B200230348A4
:1015A0000088FFF72BF805B0BDE8F08F1C00002085
:1015B00070B504460D4616465F48006828445F49EA
:1015C0000968884206D15E480068401C5C49086092
:1015D00000F0FCFD5B4800682844584909688842CF
:1015E00006D157480068401C5549086000F0EEFDE0
:1015F00055480068284451490968884206D1504836
:101600000068401C4E49086000F0E0FD4F48436808
:101610002146026848480068FFF786FF4B48C368C8
:101620002146826847480068FFF77EFF47484369C4
:101630002146026944480068FFF776FF3E4800688B
:10164000001B3D4908603F480068001B3D49086099
:101650003D480068001B3C4908603748006830443A
:10166000002814DAF02034490860FEF7B1FD0921A2
:1016700090FBF1F201FB120034490860FEF7A8FD6F
:10168000092190FBF1F201FB1200304948602D481E
:1016900000683044002816DA274800686430294979
:1016A0000860FEF795FD092190FBF1F201FB1200A5
:1016B00026498860FEF78CFD092190FBF1F201FBC1
:1016C00012002249C860204800683044002816DA19
:1016D00019480068C8301C490860FEF779FD0921E7
:1016E00090FBF1F201FB120018490861FEF770FD52
:1016F000092190FBF1F201FB1200144948611348E3
:1017000043684FF4FC6102680B48006800F030F950
:101710000E48C3684FF4FC6182680A48006800F014
:1017200027F90A4843694FF4FC61026906480068DA
:1017300000F01EF970BD00000C0000200400002025
:101740001800002010000020140000202C000020B1
:1017500038B50546681CC4B214E023465022114631
:101760000020FEF7CDFE0D48FEF7FDFD4FF4A07002
:101770000023F022194600904FF6FF70FEF73EFF5F
:10178000601EC4B2002CE8DC4FF4A0700023F022ED
:10179000194600901846FEF731FF38BD404B4C000B
:1017A0002DE9F84F81468A4614469B46FEF762FFB4
:1017B000002554E000264FE0BBF1000F03D106FBEB
:1017C000049705FB04A8BBF1010F05D105FB0497A5
:1017D000C6F1100000FB04A805EB051022490844DF
:1017E000805D062836D2DFE800F003040D17212BB8
:1017F00030E01FFA88F3B9B2224600200094FEF7C9
:10180000FDFE27E01FFA88F3B9B222464FF6FF70BB
:101810000094FEF7F3FE1DE01FFA88F3B9B22246EA
:101820004FF620700094FEF7E9FE13E01FFA88F3EC
:10183000B9B222464EF661500094FEF7DFFE09E091
:101840001FFA88F3B9B222464FF640300094FEF7F3
:10185000D5FE00BF00BF761C112EADDB6D1C0C2D1C
:10186000A8DBBDE8F88F00002A2E00082DE9F84F0C
:1018700004468A4693464FF01E080BEB8B00282146
:1018800001EB400085B2A1B20023424650460095CC
:10189000FEF7B4FE0A200090A81C83B208F10A02E9
:1018A000601F81B25046FEF7A9FE00271BE0B9B2C7
:1018B000A21E90B20022FEF779FEB9B2621E90B26B
:1018C0000022FEF773FEB9B204EB080290B20022C8
:1018D000FEF76CFEB9B204EB0802521C90B2002273
:1018E000FEF764FE7F1CAF42E1DB002624E0AA196C
:1018F000521C91B2E21F90B20022FEF757FEAA19C5
:10190000521C91B2A21F90B20022FEF74FFEAA19FC
:10191000521C91B204EB0802521D90B20022FEF755
:1019200045FEAA19521C91B204EB0802921D90B216
:101930000022FEF73BFE761C0B2ED8DB4FF0000991
:1019400011E0E11F494488B200222946FEF72EFE2D
:1019500005F10C0291B2E21F4A4490B20022FEF758
:1019600025FE09F10109B9F12C0FEADBBDE8F88F7A
:101970002DE9F04105460E4617461C463A463146CB
:101980002846FFF773FF22463146284600F002F84A
:10199000BDE8F0812DE9F84F04468A4693464FF0A2
:1019A0001E080BEB8B00282101EB400085B2C5F52A
:1019B000A07083B2A1B2424650460095FEF71EFECB
:1019C0000A20009040F23510401B83B208F10A0251
:1019D000601F81B25046FEF711FE002727E040F25B
:1019E0003F12D21B91B2A21E90B20022FEF7DEFD82
:1019F00040F23F12D21B91B2621E90B20022FEF75B
:101A0000D5FD40F23F12D21B91B204EB080290B216
:101A10000022FEF7CBFD40F23F12D21B91B204EB45
:101A20000802521C90B20022FEF7C0FD7F1CAF429C
:101A3000D5DB002630E0AA19521C40F23F139A1A57
:101A400091B2E21F90B20022FEF7B0FDAA19521C1B
:101A500040F23F139A1A91B2A21F90B20022FEF7F1
:101A6000A5FDAA19521C40F23F139A1A91B204EB39
:101A70000802521D90B20022FEF798FDAA19521CCE
:101A800040F23F139A1A91B204EB0802921D90B2F1
:101A90000022FEF78BFD761C0B2ECCDB4FF00009ED
:101AA00017E040F23F12521B91B2E21F4A4490B23B
:101AB0000022FEF77BFD05F10C0240F23F139A1A5B
:101AC00091B2E21F4A4490B20022FEF76FFD09F185
:101AD0000109B9F12C0FE4DBBDE8F88FF0B591B046
:101AE00004463DA2D2E900109268CDE90F020E91A2
:101AF0003CA30FCB0AAD0FC53EA292E80B00D26803
:101B000006AD0BC509923FA207CA03AB07C3404805
:101B1000006800F04DFB07463D48066800250EE0D2
:101B20000A2196FBF1F201FB12613031C8B2C5F116
:101B30000F010AAA50540A2196FBF1F66D1CBD4212
:101B4000EEDBB420462302461E2100902046FEF71D
:101B500055FD4FF478400A230EAAB421CDE90004C4
:101B60002820FEF739FF002010230AAA9621CDE98C
:101B700000042320FEF730FF0020102306AA642172
:101B8000CDE900042320FEF727FF00200C2303AA41
:101B90005021CDE900042320FEF71EFF18E01D4868
:101BA00000680B2811DB1C480078F02804D01B4883
:101BB0000078772800D10CE01848007816490870A2
:101BC000002014490860154908706420FEF7CBFB1B
:101BD000E5E700BF11B0F0BD47414D45204F5645E8
:101BE00052210000596F75722053636F72653A205D
:101BF000202020205072657373204E756D4C6F63EA
:101C00006B20746F537461727420416769616E2E2A
:101C100018000020200000202500002024000020C3
:101C200010B5C9480168C9480068223081423BDCD0
:101C3000C5480068C5490968884235DB00202FE0A7
:101C4000212124E0C24A126802EB8202322303EB14
:101C50004202824207DD012200EB0013BD4C04EB7F
:101C6000C30343F82120BA4A526802EB82022823B8
:101C700003EB4202C2F59B72824207DC012200EBB9
:101C80000013B44C04EBC30343F82120491EAF4AB0
:101C900012682232AC4B1B68D21A8A42D2DB401C3B
:101CA000B0F5A07FCCDB4EE1A7480068A7490968E2
:101CB00088423CDAA5480168A34800681E3081428A
:101CC00035DC00202FE0002124E0A14A126802EB5D
:101CD0008202322303EB4202824207DD012200EB43
:101CE00000139C4C04EBC30343F82120984A52682C
:101CF00002EB8202282303EB4202C2F59B7282426E
:101D000007DC012200EB0013924C04EBC30343F801
:101D10002120491C8C4A12681E328C4B1B68D21A37
:101D20008A42D2DC401CB0F5A07FCCDB0BE18A48B4
:101D3000016886480068223081423BDC86480068A2
:101D400082490968884235DB00202FE0212124E008
:101D50007F4A926802EB8202322303EB4202824204
:101D600007DD012200EB00137A4C04EBC30343F8B8
:101D70002120774AD26802EB8202282303EB420239
:101D8000C2F59B72824207DC012200EB0013714C0A
:101D900004EBC30343F82120491E6C4A1268223227
:101DA0006D4B1B68D21A8A42D2DB401CB0F5A07F73
:101DB000CCDBC8E0684800686449096888423CDABE
:101DC00062480168644800681E30814235DC0020AA
:101DD0002FE0002124E05E4A926802EB8202322367
:101DE00003EB4202824207DD012200EB0013594C53
:101DF00004EBC30343F82120554AD26802EB820268
:101E0000282303EB4202C2F59B72824207DC0122C7
:101E100000EB00134F4C04EBC30343F82120491C93
:101E20004D4A12681E32494B1B68D21A8A42D2DCD4
:101E3000401CB0F5A07FCCDB85E0484801684348F2
:101E40000068223081423BDC444800683F49096811
:101E5000884235DB00202FE0212124E03C4A126932
:101E600002EB8202322303EB4202824207DD0122AF
:101E700000EB0013374C04EBC30343F82120344A32
:101E8000526902EB8202282303EB4202C2F59B72E5
:101E9000824207DC012200EB00132E4C04EBC3034B
:101EA00043F82120491E294A126822322B4B1B6815
:101EB000D21A8A42D2DB401CB0F5A07FCCDB42E0D4
:101EC000264800682149096888423CDA1F480168B1
:101ED000224800681E30814235DC00202FE00021BE
:101EE00024E01B4A126902EB8202322303EB420216
:101EF000824207DD012200EB0013164C04EBC30302
:101F000043F82120124A526902EB8202282303EB94
:101F10004202C2F59B72824207DC012200EB0013F1
:101F20000C4C04EBC30343F82120491C0B4A1268F4
:101F30001E32064B1B68D21A8A42D2DC401CB0F516
:101F4000A07FCCDB00BF10BD0C00002004000020EF
:101F50002C0000204400002010000020140000206D
:101F600038B505460C46184800680B282ADB174888
:101F70000078F0281DD116480078792819D11C2046
:101F800000901448008883B21348008881B222224E
:101F900012480088FEF732FB0E48006820440D49C5
:101FA000086000230222084601680B480068FFF71A
:101FB000F7FB0748007805490870002002490860CF
:101FC0000349087038BD00002000002025000020D3
:101FD0002400002008000020040000201C00002035
:101FE00010B5024602EB8200282404EB40030129CD
:101FF00002D1C3F5A07010BD1846FCE71CB544F62D
:10200000206700240AE0FEF7E3F8092190FBF1F2D3
:1020100001FB12005A4941F82400641C062CF2DB33
:10202000F020584908600846006864305649086046
:1020300054480068C8305549086028205449086051
:102040008A2054490860FEF715FBFEF7CFFBFEF728
:10205000EBFDFEF7BDF9FEF745FAFEF7FBF94FF48D
:1020600016512420FEF77EFD0520FEF7E1F94A48CF
:10207000FEF779F982E0394648F2FF70FEF726FE56
:1020800046480068012804D002280CD003281FD13C
:1020900013E04FF00108C1464FF0140A4FF0260B31
:1020A0002C20019014E04FF00208C1464FF0180AAE
:1020B0004FF0260B2C2001900AE04FF003084FF060
:1020C00004094FF01C0A4FF0240B2C20019000BF94
:1020D00000BF0320FFF73CFB41F61F4141F2873070
:1020E000FEF712FD4FF4A0700023F0221946009075
:1020F0002B480088FEF782FA3AE02A48006840F050
:1021000020002849086051463846FFF729FF40461D
:10211000FFF766F924480078012829DD00250EE044
:10212000002608E0002006EB0611204A02EBC10160
:1021300041F82500761CB6F5A07FF3DB6D1C222D3F
:10214000EEDBFFF76DFDFFF777F9012808D11548A1
:10215000001D006840F020001249091D086008E0D9
:1021600059464846019AFFF723FA00200E490870A5
:10217000C3E700BF4FF6FA70FFF7B0FC7BE7000043
:102180002C0000200C000020100000201400002073
:10219000040000200800002040420F00280000201A
:1021A0001C000020100C0140010000204400002011
:1021B0000146002209B90120704703E00A2091FB83
:1021C000F0F1521C0029F9D11046F5E770B586B040
:1021D000142212A101A8FEF753F815480068FFF772
:1021E000E7FF06461248056800240EE00A2195FB29
:1021F000F1F201FB12513031C8B2C4F10F0101AA52
:1022000050540A2195FBF1F5641CB442EEDB01A9A0
:102210000220FFF7B7F806B070BD0000596F757265
:102220002053636F72653A20202020200A000000AE
:102230001800002090EA010F48BF81F0004100F132
:102240002E82421A3CBF801A89184FEAD0524FF0B2
:102250007F4C1CEA410FA2EBD15318BF9CEA026FDE
:1022600000F03B804FF0004C4CEA00204CEA01218A
:1022700021FA03FC10EB0C0C1ED202F1FF325FEAD4
:102280001C2040EBC25038BF70471CF07F0F4FEA54
:10229000400C18BFBCF17F4F38BF7047C3F120031B
:1022A000994008BF20F00100BCF17F4F38BF704754
:1022B000A0F1C04000F0DDB94FEA3C00000A40EB5D
:1022C000C25028BF1CF0FF0F4FEA400CE6D018BFE9
:1022D000BCF17F4F38BF7047EAE79CEA026F05D038
:1022E00010EA5C0F08BF00F00040704710B500F026
:1022F0007AF900BF64FBBE3E4FF47F0C1CEAD0129B
:102300001EBF1CEAD11392EA0C0F93EA0C0F00F0E7
:10231000858090EA010F48BF42F4807240F4000CBF
:1023200041F400002CF07F4120F07F4000B5814255
:10233000A2EB03020FF2081CACEB504EC0F1000000
:102340009EF800E04FEA4E0E00FB0EFC38BF49003D
:102350004FEA2C1C02F5FA020CFB0EF34FEACE1EDC
:102360004FEA112C4FEAC1210EEB635E42EB224291
:102370000EFB0CFC4FEA1C5300FB03114FEA112C1F
:102380004FEA01310EFB0CFC4FEADC4C00FB0C1158
:10239000C14228BF09184CEB03335DF804EB10EB86
:1023A000410143EBC250B2F57C0F38BF704729D5CD
:1023B00012F0F00F1CBF00F1C04000F00040704769
:1023C000008182838485868788898B8C8D8E8F910E
:1023D0009293959697999A9C9D9FA0A2A3A5A7A832
:1023E000AAACAEB0B2B3B5B7B9BCBEC0C2C5C7C95E
:1023F000CCCED1D4D7D9DCDFE2E6E9ECF0F3F7FAC2
:10240000FE0000004FEA400C0CF1807CBCF17E4FD6
:1024100028BF7047B0F1C04000F02BB990EA010F1F
:102420000CEAD11348BF42F48072624538BF63455D
:1024300007D213F47F0F16D080EA010000F00040AD
:10244000704710B500F0CFF8097EFC3E00F005B8EB
:1024500080EA010000F00040704780EA010000F0CF
:10246000004000F006B912F47F0F04BF0248704725
:1024700080EA010000F0FDB80000C07FC10DD1F17D
:102480009E0206DB4FEA002343F0004323FA02F0EA
:102490007047004207D54FEA4001B1F1FE4F02D22A
:1024A0004FF00000704710B500F09DF8499224806D
:1024B000002070476FEA200070470000B0FA80F3F8
:1024C00010FA03F2C3F19D030AD0D90501EB1220E3
:1024D000530638BF704700F1010008BF20F001002B
:1024E000704700004FF47F0C1CEAD0121EBF1CEA9C
:1024F000D11392EA0C0F93EA0C0F00F0478090EA98
:10250000010F48BF42F480724FF0004C4CEA0020AB
:102510004CEA012102EB0302A0FB0113A2F5000229
:10252000002918BF43F001035B0028BF4FEA3303C3
:1025300042EB22425FEA132C4CEBC2502EBFBCEBA5
:10254000436FB2F57C0F70474FEA036CBCF1004F4C
:1025500008BF20F00100B2F57C0F38BF70470BD5E3
:1025600082F0FF0212F5803FC8BF704700F1C04003
:10257000D8BF00F00040704700F5000C5FEA4C0C3B
:1025800048BF7047B0F1C04000F073B890EA010F47
:102590000CEAD11348BF42F48072624538BF6345EC
:1025A00004D280EA010000F00040704710B500F04E
:1025B0001AF800BF8900013E00F007B800F009B822
:1025C0005FEA410C5FEA1C6C08D080EA010000F071
:1025D00050B85FEA400C5FEA1C6CF6D14FF0004047
:1025E000A0F5800070470EF1020E2EF0030E5EF88B
:1025F000044B244204D44FEA4102B2F17F4F11D878
:102600004FEA4003B3F17F4F0CD80ED14FEAD07C94
:10261000B2F17F4F0CEB4C0C0CF1020C08BF4CEBF1
:10262000D17C04E04FF0080C01E04FEAD17C0CEBC8
:102630004C0324FA03F404F00704B4F1040C06D2AA
:102640000EEB840CBDE810404CF0010C6047DFE855
:102650000CF0070802024FF00040A0F5800010BD0A
:102660000846420018BFD2F1807288BF00F00040D7
:1026700010BDFF2141EAD050C005704780F00040F6
:1026800090EA010F7FF5DDAD81F0004100F007B861
:1026900090EA010F48BF81F000413FF5D2AD421AE8
:1026A00004D882F00042A0EB020011444FEAD0525D
:1026B0004FF07F4C1CEA410FA2EBD15318BF9CEAAC
:1026C000026F4AD04FF0004C4CEA00204CEA012146
:1026D00021FA03FCB0EB0C0C0FD412F0FE0F36D035
:1026E0005FEA4C001DD5001240EBC25038BF704766
:1026F0001CF03F0F18BF70470BE0A2F101025FEA28
:102700001C2040EBC25038BF70471CF07F0F18BF31
:102710007047C3F12003994014BF401E20F0010010
:10272000704780084FEA122308BF7047B0FA80FC58
:10273000A2EB0C02CCF1280C60FA0CF093EA122FF9
:1027400004BF00EBC25070474FEAC3707047130AD2
:102750005FEADC1008BF7047F6E79CEA026F04D01E
:1027600010EA5C0F08BF0020704710B5FFF73BFF71
:1027700040DFF63E81F0004070470000000000009E
:102780000000000000000000000000000000000049
:102790001FCC000C0000000000000000080030000A
:1027A00060000800300060000000022003FC1E20D2
:1027B000022003FC1E200220000000000E1811045D
:1027C0003FFF10840C78000000000F0010840F38C9
:1027D00000C0077818840078000000780F8410C4C7
:1027E00011240E9800E400840008080068007000BE
:1027F00000000000000000000000000000000000D9
:1028000007E01818200440020000000040022004E5
:10281000181807E00000000000000240024001809C
:102820000FF0018002400240000000800080008024
:102830000FF800800080008000000001000D000EF5
:102840000000000000000000000000000080008088
:10285000008000800080008000800000000C000CE0
:10286000000000000000000000000000000600184A
:1028700000600180060018002000000007F0080832
:1028800010041004080807F0000000000804080401
:102890001FFC000400040000000000000E0C1014D7
:1028A0001024104411840E0C000000000C181004B9
:1028B0001104110412880C700000000000E00320D5
:1028C000042408241FFC0024000000001F9810842A
:1028D00011041104108810700000000007F008882F
:1028E0001104110418880070000000001C00100082
:1028F00010FC13001C001000000000000E381144F2
:102900001084108411440E38000000000700088C69
:1029100010441044088807F0000000000000000088
:10292000030C030C00000000000000000000000188
:1029300001060000000000000000000000800140CF
:1029400002200410080810040000022002200220C7
:1029500002200220022002200000000010040808CB
:102960000410022001400080000000000E00120050
:10297000100C106C10800F00000003E00C1813E422
:10298000142417C4082807D000000004003C03C426
:102990001C40074000E4001C000410041FFC11044C
:1029A000110411040E880070000003E00C181004DC
:1029B0001004100410081C10000010041FFC100468
:1029C00010041004080807F0000010041FFC110494
:1029D000110417C410040818000010041FFC11048F
:1029E000110017C010000800000003E00C181004CC
:1029F000100410441C780040000010041FFC1084D8
:102A00000080008010841FFC1004000010041004DB
:102A10001FFC10041004000000000003000110015E
:102A200010011FFE10001000000010041FFC110414
:102A300003801464181C1004000010041FFC100410
:102A4000000400040004000C000010041FFC1F0020
:102A500000FC1F001FFC1004000010041FFC0C04ED
:102A6000030000E010181FFC100007F00808100415
:102A700010041004080807F0000010041FFC108464
:102A80001080108010800F00000007F0081810243C
:102A90001024101C080A07F2000010041FFC110487
:102AA000110011C011300E0C000400000E1C1104A6
:102AB0001084108410441C3800001800100010040A
:102AC0001FFC100410001800000010001FF8100474
:102AD0000004000410041FF8100010001E0011E094
:102AE000001C007013801C0010001FC0103C00E090
:102AF0001F0000E0103C1FC000001004180C16342A
:102B000001C001C01634180C100410001C0013047E
:102B100000FC13041C00100000000804101C1064CA
:102B2000108413041C0410180000000000000000B2
:102B30007FFE4002400240020000000030000C0016
:102B400003800060001C00030000000040024002FF
:102B500040027FFE00000000000000000000200096
:102B60004000400040002000000000010001000182
:102B700000010001000100010001000040004000D0
:102B80002000000000000000000000000098012468
:102B900001440144014400FC000410001FFC0088B3
:102BA000010401040088007000000000007000882B
:102BB0000104010401040088000000000070008886
:102BC0000104010411081FFC0004000000F8014486
:102BD00001440144014400C8000000000104010454
:102BE0000FFC1104110411001800000000D6012987
:102BF0000129012901C90106000010041FFC0084FD
:102C000001000100010400FC00040000010419049B
:102C100019FC000400040000000000000003000193
:102C20000101190119FE0000000010041FFC00241E
:102C3000004001B4010C0104000000001004100465
:102C40001FFC0004000400000000010401FC01045A
:102C5000010001FC0104010000FC010401FC0084EE
:102C600001000100010400FC0004000000F8010460
:102C700001040104010400F80000010101FF0085C6
:102C8000010401040088007000000000007000884A
:102C900001040104010501FF00010104010401FC1C
:102CA00000840104010001800000000000CC012428
:102CB000012401240124019800000000010001000A
:102CC00007F80104010400000000010001F80004FD
:102CD00000040004010801FC0004010001800170EF
:102CE000000C001001600180010001F0010C0030B7
:102CF00001C00030010C01F0010000000104018C52
:102D000000740170018C0104000001010181017156
:102D1000000E001801600180010000000184010C18
:102D2000013401440184010C000000000000000097
:102D3000000001003EFC40024002000000000000D4
:102D40000000FFFF00000000000000004002400201
:102D50003EFC010000000000000000006000800058
:102D6000800040004000200020000000000300031D
:102D7000C003C003C183C183FFFFFFFFC183C183C1
:102D8000C003C0030003000300000200420033FC44
:102D9000000800327FE4C92A49317FFE04800462C2
:102DA0000401FFFE040004000000000000FF008991
:102DB00000890089FE8992FF9200920092FFFE89AD
:102DC00000890089008900FF000000000003000363
:102DD000C003C003C183C183FFFFFFFFC183C18361
:102DE000C023C013000B00030000000040405060EF
:102DF0004C84410240047FF80000404050604C8405
:102E0000410240047FF80000000000000820462036
:102E1000207F31814202423C4A84EA984A805FFF27
:102E20004A90EA8C4FBF4200000000000000000002
:102E3000000101010100000000000000000000008E
:102E4000010104040404010101010100000000006B
:102E50000104040404040105050505010000000146
:102E60000101040404040105010101010100000144
:102E70000303030103030303010505050505010120
:102E80000302020203010303030301010101010024
:102E90000102020202020103030301020202010015
:102EA0000001020202020103030301020201020106
:102EB00000000001010101030303030102020102FA
:102EC00001000000000001030303030301020202EA
:102ED00001000000000000000101030303030102E0
:102EE00001000000000000000000000101010101DC
:102EF0000100000000000000182F00080000002062
:102F00002C0000006C010008442F00082C00002059
:102F10005CB1000088010008000000000000000013
:102F200000000000000000000000000000000000A1
:102F300000000000FFAF00000000000000000000E3
:042F4000010000008C
:0400000508000205E8
:00000001FF
