:020000040800F2
:1000000068060020CD0100081D0500088D020008CB
:1000100019050008870200088D060008000000008E
:1000200000000000000000000000000021050008A2
:100030008B020008000000001F0500080D060008E4
:10004000E7010008E7010008E7010008E7010008F0
:10005000E7010008E7010008E7010008E7010008E0
:10006000E7010008E7010008E7010008E7010008D0
:10007000E7010008E7010008E7010008E7010008C0
:10008000E7010008E7010008E7010008E7010008B0
:10009000E7010008E7010008E7010008E7010008A0
:1000A000E7010008E7010008E7010008E701000890
:1000B000E7010008E7010008E7010008E701000880
:1000C000E7010008E7010008E7010008E701000870
:1000D000E7010008E7010008E7010008E701000860
:1000E000E7010008E7010008E7010008E701000850
:1000F000E7010008E7010008E7010008E701000840
:10010000E7010008E7010008E7010008E70100082F
:10011000E7010008E7010008E7010008E70100081F
:10012000E7010008E7010008E7010008E70100080F
:1001300000F002F800F03AF80AA090E8000C8244BF
:100140008344AAF10107DA4501D100F02FF8AFF29C
:10015000090EBAE80F0013F0010F18BFFB1A43F0A5
:10016000010318476409000084090000103A24BF05
:1001700078C878C1FAD8520724BF30C830C144BF0C
:1001800004680C607047000000230024002500264E
:10019000103A28BF78C1FBD8520728BF30C148BFEA
:1001A0000B6070471FB51FBD10B510BD00F031F8D2
:1001B0001146FFF7F7FF00F00DFC00F04FF803B415
:1001C000FFF7F2FF03BC00F057F800000948804732
:1001D00009480047FEE7FEE7FEE7FEE7FEE7FEE729
:1001E000FEE7FEE7FEE7FEE704480549054A064B41
:1001F000704700002D06000831010008680000204B
:1002000068060020680200206802002070477047DE
:100210007047754600F02CF8AE4605006946534617
:1002200020F00700854618B020B5FFF7DDFFBDE8D8
:1002300020404FF000064FF000074FF000084FF04D
:10024000000B21F00701AC46ACE8C009ACE8C009DE
:10025000ACE8C009ACE8C0098D46704710B504464B
:10026000AFF300802046BDE81040FFF7A8BF0000B4
:10027000004870470400002001491820ABBEFEE78B
:1002800026000200704700BFFEE7704700BFFEE790
:1002900010B503460C462A2000F038F9181200F079
:1002A0002FF9D8B200F02CF9012000F029F93F20F5
:1002B00000F026F92B2000F029F9201200F020F997
:1002C000E0B200F01DF9012000F01AF9DF2000F083
:1002D00017F92C2000F01AF9104600F011F910BDA2
:1002E000F0B507460C46059D00262A2000F00EF9C1
:1002F000201200F005F9E0B200F002F91119491ED0
:10030000C1F30F2000F0FCF81119491EC8B200F02B
:10031000F7F82B2000F0FAF8181200F0F1F8D8B234
:1003200000F0EEF8E918491EC1F30F2000F0E8F8DC
:10033000E918491EC8B200F0E3F82C2000F0E6F8F6
:1003400000BF03E0384600F0DBF8761C02FB05F046
:10035000B042F7D8F0BD000000B55548406940F400
:100360008070534948610846806940F00800886100
:100370000846806940F0200088610846806940F0A6
:10038000400088610846806940F48070886149486F
:10039000006820F00F00474908600846006840F0F8
:1003A0000300086044480068444908404249086026
:1003B00008460068424908433F490860081F006832
:1003C00000F0FF20091F08600846006840F0BB10DD
:1003D00008603C48006800203A4908600846006808
:1003E00040F0BB300860081F006820F07040091F13
:1003F00008600846006840F03040086032484068B5
:1004000020F47020304948600846406840F43020AD
:1004100048600846006820F00F0008600846006841
:1004200040F00B00086000204FF020418861C86157
:10043000264908604FF02040806940F480504FF01A
:10044000204188610846806940F480408861084600
:10045000806940F0100088610846C069C86108469C
:10046000C06940F00100C8610846C06940F470608E
:10047000C86116480068C1F81C0114480068C1F83A
:100480001C010846D0F81C0140F44070C1F81C0162
:100490000846806940F00100886100F019F80548BD
:1004A0001030006840F0010002491031086000BDC2
:1004B00000100240000C01400414014000F0FF0055
:1004C000BB0B00BB04180140002001401C0100A030
:1004D00000B5012000F01AF8112000F017F83A20BA
:1004E00000F014F8552000F00BF8292000F00EF869
:1004F000362000F00BF8CA2000F002F800BD000022
:1005000001490880704700000008006C014908801C
:1005100070470000FE07006C00BFFEE770477047A1
:10052000704710B500F002F810BD00000CB50020B7
:10053000019000903348006840F4803031490860F1
:1005400000BF3048006800F4003000900198401C63
:100550000190009818B90198B0F5A06FF1D1294821
:10056000006800F4003010B10120009001E000208C
:1005700000900098012843D12348006840F0100003
:10058000214908600846006820F00300086008461A
:10059000006840F0020008601A4840681949486045
:1005A0000846406848600846406840F480604860FB
:1005B0000846406820F47C1048600846406840F4D3
:1005C000E81048600846006840F08070086000BF8E
:1005D0000C48006800F000700028F9D00948406815
:1005E00020F00300074948600846406840F00200D8
:1005F000486000BF0348406800F00C000828F9D1AB
:100600000CBD0000001002400020024005480078A8
:10061000401C0449087004480078401C02490870D6
:1006200070470000000000200100002010B51348B2
:10063000006840F001001149086008464068104910
:1006400008400E494860084600680E4908400B49BA
:1006500008600846006820F480200860084640686A
:1006600020F4FE0048604FF41F008860FFF759FF38
:100670004FF000600449086010BD00000010024007
:100680000000FFF8FFFFF6FE08ED00E000BFFEE708
:100690002DE9F84F0746884614469946FFF75CFE59
:1006A000002559E0002653E0B9F1000F07D106FB01
:1006B00004701FFA80FA05FB04801FFA80FBB9F171
:1006C000010F09D105FB04701FFA80FAC6F1100072
:1006D00000FB04801FFA80FB05EB0510204908444D
:1006E000805D062831D2DFE800F003040C151E27D8
:1006F0002BE05B462246514600200094FFF7F0FDB8
:1007000023E05B46224651464FF6FF700094FFF708
:10071000E7FD1AE05B46224651464FF620700094F2
:10072000FFF7DEFD11E05B46224651464EF6615072
:100730000094FFF7D5FD08E05B46224651464FF690
:1007400040300094FFF7CCFD00BF00BF701C86B2A4
:10075000112EA9DB681C85B20C2DA3DBBDE8F88F38
:10076000FA0900082DE9F84F04468A4693464FF0EF
:1007700014080BEB8B00282101EB400085B200230D
:100780004246214650460095FFF7AAFD0A200090F8
:10079000A81C83B208F10A02601F81B25046FFF71D
:1007A0009FFD00271BE0B9B2A21E90B20022FFF706
:1007B0006FFDB9B2621E90B20022FFF769FDB9B2B7
:1007C00004EB080290B20022FFF762FDB9B204EB1D
:1007D0000802521C90B20022FFF75AFD7F1CAF4264
:1007E000E1DB002624E0AA19521C91B2E21F90B26C
:1007F0000022FFF74DFDAA19521C91B2A21F90B220
:100800000022FFF745FDAA19521C91B204EB080221
:10081000521D90B20022FFF73BFDAA19521C91B263
:1008200004EB0802921D90B20022FFF731FD761C06
:100830000A2ED8DB4FF0000911E0E11F494488B2CD
:1008400000222946FFF724FD05F10C0291B2E21FB8
:100850004A4490B20022FFF71BFD09F10109B9F1EA
:10086000220FEADBBDE8F88F2DE9F04105460E4680
:1008700017461C463A4631462846FFF773FF224684
:100880003146284600F002F8BDE8F0812DE9F84F26
:1008900004468A4693464FF014080BEB8B00282140
:1008A00001EB400085B2C5F5A07083B242462146F7
:1008B00050460095FFF714FD0A20009040F23510D5
:1008C000401B83B208F10A02601F81B25046FFF755
:1008D00007FD002727E040F23F12D21B91B2A21E73
:1008E00090B20022FFF7D4FC40F23F12D21B91B22B
:1008F000621E90B20022FFF7CBFC40F23F12D21BE7
:1009000091B204EB080290B20022FFF7C1FC40F262
:100910003F12D21B91B204EB0802521C90B200228B
:10092000FFF7B6FC7F1CAF42D5DB002630E0AA19EA
:10093000521C40F23F139A1A91B2E21F90B2002269
:10094000FFF7A6FCAA19521C40F23F139A1A91B263
:10095000A21F90B20022FFF79BFCAA19521C40F282
:100960003F139A1A91B204EB0802521D90B2002272
:10097000FFF78EFCAA19521C40F23F139A1A91B24B
:1009800004EB0802921D90B20022FFF781FC761C56
:100990000B2ECCDB4FF0000917E040F23F12521B48
:1009A00091B2E21F4A4490B20022FFF771FC05F1B8
:1009B0000C0240F23F139A1A91B2E21F4A4490B2DD
:1009C0000022FFF765FC09F10109B9F1220FE4DB10
:1009D000BDE8F88FFFF7C0FCFFF77AFD0CE00923B4
:1009E00008224FF4FC611420FFF73EFF002302228F
:1009F00094211420FFF74CFEF1E7000000000000F6
:100A000000010101010000000000000000000000E2
:100A100001010404040401010101010000000000BF
:100A2000010404040404010505050501000000019A
:100A30000101040404040105010101010100000198
:100A40000303030103030303010505050505010174
:100A50000302020203010303030301010101010078
:100A60000102020202020103030301020202010069
:100A7000000102020202010303030102020102015A
:100A8000000000010101010303030301020201024E
:100A9000010000000000010303030303010202023E
:100AA0000100000000000000010103030303010234
:100AB0000100000000000000000000010101010130
:100AC0000100000000000000E80A0008000000200B
:100AD000040000006C010008EC0A0008040000207B
:0C0AE0006406000088010008000000000F
:04000005080001CD21
:00000001FF
